:100000000C9434000C9451000C9451000C94510049
:100010000C9451000C9451000C9451000C9451001C
:100020000C9451000C9451000C9451000C9451000C
:100030000C9451000C9451000C9451000C945100FC
:100040000C9451000C9451000C9451000C945100EC
:100050000C9451000C9451000C9451000C945100DC
:100060000C9451000C94510011241FBECFEFD8E026
:10007000DEBFCDBF17E0A0E0B1E0E2E6FFE402C0E2
:1000800005900D92AE36B107D9F727E0AEE6B7E09E
:1000900001C01D92AC3FB207E1F70E94B10F0C9472
:1000A000AF270C940000EF92FF920F931F93CF9312
:1000B000DF9300D000D000D0CDB7DEB71E821D8206
:1000C000DC01ED91FC910190F081E02DAE014B5FE0
:1000D0005F4F6FEF75E009957C018D819E81E11482
:1000E000F10419F0009709F4D6C0DC01ED91FC9100
:1000F0000190F081E02D41E757E069EC75E009954A
:100100007C01892B09F0C7C080917107909172071B
:10011000009709F4CDC04091000150910101DC012C
:10012000ED91FC910284F385E02D6BED75E009956E
:100130007C01892B09F0AFC0809171079091720703
:10014000DC01ED91FC910190F081E02DAE014F5F5B
:100150005F4F67EB75E009957C01892BB9F48981C4
:100160009A81009799F0DC01ED91FC910680F7816E
:10017000E02D6BED75E0099589819A81DC01ED91A7
:10018000FC910284F385E02D61E0099589819A81D3
:10019000DC01ED91FC910480F581E02D09958091C1
:1001A000710790917207DC01ED91FC910684F7854F
:1001B000E02D8E010D5F1F4F2DEE35E040E050E049
:1001C0006BED75E00995E114F10409F064C08B81D1
:1001D0009C81009709F45FC0DC01ED91FC910680E1
:1001E000F781E02D40E052E06CEF77E009958091D7
:1001F0007107909172074091D1035091D203DC01B5
:10020000ED91FC910284F385E02D61E875E009959C
:100210007C01892B09F03FC0809171079091720792
:10022000DC01ED91FC910684F785E02D0FE617E0E7
:1002300025EA35E040E050E061E875E009957C0191
:10024000892B31F480916F0790917007892BF1F41D
:100250008091710790917207DC01ED91FC91068409
:10026000F785E02D0FE617E025EA35E040E050E0A5
:1002700063E975E009957C01892B59F480916F073A
:1002800090917007892B29F081E001C082E0809372
:100290006E070E94C40180917107909172070097C8
:1002A00039F0DC01ED91FC910480F581E02D099598
:1002B00080916F0790917007009739F0DC01ED9104
:1002C000FC910480F581E02D09958B819C8100973C
:1002D00039F0DC01ED91FC910480F581E02D099568
:1002E0008D819E81009739F0DC01ED91FC910480B5
:1002F000F581E02D0995C70126960FB6F894DEBF6B
:100300000FBECDBFDF91CF911F910F91FF90EF9066
:1003100008950F931F93CF93DF939C01FB013097B8
:1003200061F1009721F480E3808381E027C097FF8B
:1003300009C03195219531098DE280833196C1E064
:10034000D0E002C0C0E0D0E0C9010AE010E0B8018E
:100350000E947227CB0131960097C9F710820AE0FC
:1003600010E0C901B8010E947227805D8293219636
:100370009B01672BB1F7CE0102C080E090E0DF91D6
:10038000CF911F910F9108959F92AF92BF92CF92FC
:10039000DF92EF92FF920F931F93CF93DF93CDB72E
:1003A000DEB72E970FB6F894DEBF0FBECDBF1E8608
:1003B0001D861C861B86CE0101965C018AE0D50154
:1003C0001D928A95E9F7809171079091720740918B
:1003D000AC025091AD02DC01ED91FC910284F385F9
:1003E000E02D6BE376E00995009709F0D2C080918B
:1003F0007107909172074091850450918604DC0149
:10040000ED91FC910284F385E02D67E176E009959A
:10041000009709F0BEC08091710790917207DC01CE
:10042000ED91FC910684F785E02D8E01055F1F4F4D
:1004300029E236E040E050E067E176E00995009778
:1004400009F0A7C08B859C85009719F420E090E007
:100450004DC320916F0730917007DC01ED91FC9145
:100460000680F781E02D232B11F443E001C044E026
:1004700064E009958091710790917207DC01ED911C
:10048000FC910684F785E02D8E01035F1F4F2DE45C
:1004900036E040E050E06BE376E00995009709F024
:1004A00078C08D859E85009789F2DC01ED91FC91E5
:1004B000028CF38DE02D6CE009958D859E85DC0125
:1004C000ED91FC91048CF58DE02D40E860E00995FC
:1004D000E0916E07E33040F4F0E0EE0FFF1FEF5EB7
:1004E000F94F9081818102C090E080E0092F182FA0
:1004F000F80141918F018D859E85DC01ED91FC9184
:10050000048CF58DE02D442319F061E00995F0CFBE
:1005100040EC60E0099510E0E12CF12C0AE0F2E0FB
:100520009F2E8B859C85DC01ED91FC910484F585E3
:10053000E02D09956C01892BA1F3112361F18091C4
:1005400073078A30E9F58D859E85DC01ED91FC917C
:10055000048CF58DE02D40EC60E009958D859E853D
:10056000DC01ED91FC91048CF58DE02D40E261E021
:100570000995115099F78D859E85DC01ED91FC91CF
:10058000048CF58DE02D40EC60E009951092730726
:1005900002C0282FABC2BFE4CB16D10409F043C080
:1005A0008D859E85DC01ED91FC91048CF58DE02D0F
:1005B00041E361E0099511E0EE24E394F12CB1CF21
:1005C000EFE4CE16D104D1F0B0E5CB16D10409F09A
:1005D00049C08D859E85DC01ED91FC91048CF58DE3
:1005E000E02D42E361E009950E9DC0010F9D900D45
:1005F00011247C01B2E0EB0EF11C32C08D859E858A
:10060000DC01ED91FC91048CF58DE02D41E361E07E
:1006100009950E9DC0010F9D900D11247C01BFEF27
:10062000EB1AFB0A1DC0B0E5CB16D104A9F58D85E8
:100630009E85DC01ED91FC91048CF58DE02D42E36B
:1006400061E0099511E092E0E92EF12C6ACF0E9D50
:10065000C0010F9D900D11247C01B4E0EB0EF11C44
:100660001F5F5FCFE1E5CE16D10409F006C28D858C
:100670009E85DC01ED91FC91048CF58DE02D43E32A
:1006800061E009950E9DC0010F9D900D11247C0124
:10069000B3E0EB0EF11CE4CFB1E5CB16D10481F44D
:1006A0008D859E85DC01ED91FC91048CF58DE02D0E
:1006B00043E361E0099511E083E0E82EF12C31CFAE
:1006C00010E0EEE1CE16D10409F42BCFBBE4CB163B
:1006D000D10491F48D859E85DC01ED91FC91048C13
:1006E000F58DE02D44E361E009951111B0CF11E0E3
:1006F000E4E0EE2EF12C15CFECE4CE16D104E1F4BB
:100700008D859E85DC01ED91FC91048CF58DE02DAD
:1007100045E361E00995111105C011E075E0E72E90
:10072000F12CFFCE0E9DC0010F9D900D11247C0178
:10073000B5E0EB0EF11C94CFEDE4CE16D104E1F45C
:100740008D859E85DC01ED91FC91048CF58DE02D6D
:1007500046E361E00995111105C011E066E0E62E5F
:10076000F12CDFCE0E9DC0010F9D900D11247C0158
:10077000B6E0EB0EF11C74CFE0E3CE16D10409F025
:1007800043C0112309F4CDCE90927307F0927907FC
:10079000E09278078D859E85DC01ED91FC91048CBB
:1007A000F58DE02D40EC60E009958D859E85DC019E
:1007B000ED91FC91048CF58DE02D40E261E009950E
:1007C000115099F78D859E85DC01ED91FC91048C8B
:1007D000F58DE02D40EC60E009958D859E85DC016E
:1007E000ED91FC91048CF58DE02D4DE261E00995D1
:1007F0008D859E85DC01ED91FC91048CF58DE02DBD
:1008000040EC60E009958DCEB7E4CB16D104E1F45D
:100810008D859E85DC01ED91FC91048CF58DE02D9C
:1008200047E361E00995111105C011E057E0E52E9D
:10083000F12C77CE0E9DC0010F9D900D11247C01EF
:10084000B7E0EB0EF11C0CCFE8E4CE16D104E1F4D6
:100850008D859E85DC01ED91FC91048CF58DE02D5C
:1008600048E361E00995111105C011E048E0E42E6C
:10087000F12C57CE0E9DC0010F9D900D11247C01CF
:10088000B8E0EB0EF11CECCEE9E4CE16D104E1F4B5
:100890008D859E85DC01ED91FC91048CF58DE02D1C
:1008A00049E361E00995111105C011E039E0E32E3B
:1008B000F12C37CE0E9DC0010F9D900D11247C01AF
:1008C000B9E0EB0EF11CCCCEEEE2CE16D10451F421
:1008D0008D859E85DC01ED91FC91048CF58DE02DDC
:1008E00043E437C0B6E4CB16D10451F48D859E8520
:1008F000DC01ED91FC91048CF58DE02D4AE229C0DC
:10090000B2E5CB16D104C1F48D859E85DC01ED9155
:10091000FC91048CF58DE02D40E361E00995111107
:1009200004C011E0E12CF12CFCCDF7010E9F700109
:100930000F9FF00C112494CEF3E0CF16D10459F49C
:100940008D859E85DC01ED91FC91048CF58DE02D6B
:1009500043E261E057CFB0E2CB16D10409F0E1CD1C
:10096000112309F4DECDF0927707E09276078D85AA
:100970009E85DC01ED91FC91048CF58DE02D40EC21
:1009800060E009958D859E85DC01ED91FC91048CDC
:10099000F58DE02D40E261E00995115099F78D85C4
:1009A0009E85DC01ED91FC91048CF58DE02D40ECF1
:1009B00060E009958D859E85DC01ED91FC91048CAC
:1009C000F58DE02D4DE361E009958D859E85DC0177
:1009D000ED91FC91048CF58DE02D40EC60E00995E3
:1009E00080917307813099F480916F07909170071F
:1009F0004091760750917707609178077091790759
:100A0000DC01ED91FC910680F781E02D14C082306D
:100A1000B9F480916F0790917007409176075091DB
:100A200077076091780770917907DC01ED91FC916F
:100A30000084F185E02D09959093750780937407E4
:100A4000B50180917407909175070E948901650135
:100A50001C2D1A19F60141916F01442359F08D851F
:100A60009E85DC01ED91FC91048CF58DE02D61E01B
:100A70000995EECF0093730754CDFEE1CF16D10454
:100A800009F024CE81E080937307F0927907E09219
:100A900078078D859E85DC01ED91FC91048CF58DA8
:100AA000E02D40EC60E009958D859E85DC01ED919F
:100AB000FC91048CF58DE02D40E261E00995115028
:100AC00099F78D859E85DC01ED91FC91048CF58D67
:100AD000E02D40EC60E009958D859E85DC01ED916F
:100AE000FC91048CF58DE02D4BE280CE822F2E966A
:100AF0000FB6F894DEBF0FBECDBFDF91CF911F912F
:100B00000F91FF90EF90DF90CF90BF90AF909F90AC
:100B10000895FB012081213009F06EC02181203130
:100B200009F06AC02281211167C0238121112AC0E6
:100B30002481211127C02581211124C02681211162
:100B400021C0278121111EC0208521111BC02185B4
:100B5000211118C02285211115C02385211112C031
:100B6000248521110FC0258521110CC02685211156
:100B700009C02785211106C02089211103C02189C0
:100B80002A3A69F12381211137C02481211134C00F
:100B90002581211131C0268121112EC027812111EB
:100BA0002BC02085211128C02185211125C0228537
:100BB000211122C0238521111FC0248521111CC0B1
:100BC0002585211119C02685211116C027852111DF
:100BD00013C02089253581F4218921110DC0FA0126
:100BE00091838083DC01ED91FC910280F381E02D03
:100BF000099580E090E00895FA01118210828FEF4C
:100C00009FEF0895FC01892B39F022813381C901BE
:100C100001969383828308958FEF9FEF0895FC01DF
:100C2000892B39F022813381C90101979383828313
:100C300008958FEF9FEF08958FEF9FEF0895EF9244
:100C4000FF920F931F93CF93DF9300D0CDB7DEB702
:100C5000DC01F9011A821982892B19F48FEF9FEFB9
:100C600061C041155105B1F180818130B9F78181B1
:100C70008031A1F782818111F1CF83818111EECF83
:100C800084818111EBCF85818111E8CF868181112B
:100C9000E5CF87818111E2CF80858111DFCF81850A
:100CA0008111DCCF82858111D9CF83858111D6CF87
:100CB00084858111D3CF85858111D0CF868581111F
:100CC000CDCF87858111CACF80898111C7CF818916
:100CD0008A3A21F67F019A01CB011496ED91FC919D
:100CE0001597AE014F5F5F4FB9010995892B09F048
:100CF000B5CF89819A81009709F4B0CFDC01ED91DD
:100D0000FC910190F081E02DA801B70109957C01CB
:100D100089819A81DC01ED91FC910480F581E02DBF
:100D20000995C7010F900F90DF91CF911F910F91FF
:100D3000FF90EF900895009711F00896089580E0D5
:100D400090E00895009719F0885B9F4F089580E028
:100D500090E00895009719F0885A9F4F089580E019
:100D600090E00895FB01009709F4ADC041155105CD
:100D700009F4A9C02081213009F0A2C021812031CD
:100D800009F09EC0228121119BC0DA01238121112B
:100D90002BC02481211128C02581211125C0268145
:100DA000211122C0278121111FC0208521111CC0C3
:100DB0002185211119C02285211116C023852111F9
:100DC00013C02485203B81F4258521110DC0268583
:100DD00021110AC02785211107C02089213021F463
:100DE0002189213009F460C02381211130C0248180
:100DF00021112DC0258121112AC02681211127C052
:100E00002781211124C02085211121C02185211194
:100E10001EC0228521111BC02385211118C02485E5
:100E2000203BA9F42585211112C0268521110FC070
:100E3000278521110CC02089213049F421892230D5
:100E400031F49C012E5F3F4F2D933C932FC02381A3
:100E5000211136C02481211133C02581211130C0D8
:100E6000268121112DC0278121112AC02085211121
:100E700027C02185211124C02285211121C023856D
:100E800021111EC0248521111BC02585211118C0E8
:100E90002685211115C02785211112C02089211115
:100EA0000FC021892A3A61F48D939C93DC01ED9166
:100EB000FC910280F381E02D099580E090E0089597
:100EC000FA01118210828FEF9FEF0895FC01892BA8
:100ED00039F024813581C901019695838483089571
:100EE0008FEF9FEF08952F923F924F925F926F92F4
:100EF0007F928F929F92AF92BF92CF92DF92EF92AA
:100F0000FF920F931F93FC01372F892BE1F0628B27
:100F1000738B57874687262F972F990F990B1A01A6
:100F2000492F592F692F792F892F5101C12CD12C8D
:100F3000E12CF12C00E010E00E948627268B378BF5
:100F400080E090E002C08FEF9FEF1F910F91FF9024
:100F5000EF90DF90CF90BF90AF909F908F907F9059
:100F60006F905F904F903F902F900895DC01FB01B0
:100F7000892B01F13097F1F052968D919C91539706
:100F800091838083138212821E968D919C911F976C
:100F90009583848350962D913C915197821B930B9E
:100FA000978386831C968D919C911D97918780874E
:100FB00081E0089580E0089521E0892B09F020E088
:100FC000822F8195089521E030E0892B11F020E0F7
:100FD00030E088279927821B930B0895411551050E
:100FE00009F44AC020917E0730917F072115310511
:100FF000A9F521E030E030937F0720937E0790939E
:101000008307809382078EEB91E090937B07809318
:101010007A078AEA91E090937D0780937C0710928B
:101020008507109284071092870710928607109206
:1010300089071092880710928B0710928A071092E6
:101040008D0710928C0710928F0710928E071092C6
:101050009107109290071092920706C02F5F3F4FA2
:1010600030937F0720937E078AE797E0FA01918308
:10107000808380E090E008958FEF9FEF0895FC015A
:10108000892B31F0138A128A17861686178A168AD8
:101090000895CF93DF93009759F0FC01C481D58167
:1010A0002197D583C483209729F40E943F0802C06A
:1010B000CFEFDFEFCE01DF91CF910895CF93DF9394
:1010C000DC01FB01EA01892B09F4B7C0209709F480
:1010D000B4C08081813009F0AEC09B2F990F990B6D
:1010E0009D01492F592F692F792F892FAEEF0E942B
:1010F0008F27C9012181203109F09DC02281211152
:101100009AC0DE012381211130C0248121112DC01C
:10111000258121112AC02681211127C02781211173
:1011200024C02085211121C0218521111EC02285C6
:1011300021111BC02385211118C02485203BA9F44F
:101140002585211112C0268521110FC02785211167
:101150000CC02089213049F42189223031F49C01CE
:101160002E5F3F4F398328835CC0238121112AC021
:101170002481211127C02581211124C0268121111C
:1011800021C0278121111EC0208521111BC021856E
:10119000211118C02285211115C02385211112C0EB
:1011A0002485203B79F4258521110CC02685211149
:1011B00009C02785211106C02089213019F4218911
:1011C000213069F12381211136C02481211133C0DE
:1011D0002581211130C0268121112DC027812111A7
:1011E0002AC02085211127C02185211124C02285F4
:1011F000211121C0238521111EC0248521111BC06E
:101200002585211118C02685211115C0278521119A
:1012100012C0208921110FC021892A3A61F48D93CF
:101220009C93DC01ED91FC910280F381E02D099506
:1012300080E090E004C0198218828FEF9FEFDF9169
:10124000CF910895AC01892B99F0952F990F990BA7
:101250009A01492F592F692F792F892FAEEF0E94BC
:101260008F27F90184819581019695838483089560
:101270008FEF9FEF0895CF93DF93AC01892BC1F0DF
:10128000952F990F990B9A01492F592F692F792F73
:10129000892FAEEF0E948F27C901F901C481D58142
:1012A0002197D583C483209729F40E943F0802C068
:1012B000CFEFDFEFCE01DF91CF910895EF92FF9254
:1012C0000F931F93CF93DF93392FFB01282F990F93
:1012D000990B492F592F692F792F892FAEEF0E9433
:1012E0008F27D901BF01637077276115710531F030
:1012F00084E090E09C01261B370BB9016E0F7F1F25
:101300001C968D919C911D9701961D969C938E9392
:101310001C971A96ED91FC911B9780E090E020E0DD
:1013200030E0309771F140815181E280F3804617BF
:10133000570720F164177507C9F42115310521F00D
:10134000E901EA82FB8206C01A96EC921A971B9674
:10135000FC921B9750968D919C915197680F791F25
:1013600051967C936E935097329674C0009719F003
:101370004817590718F4CA018901EF019F01F701C5
:10138000D0CF009771F1861B970B50964D915C91D1
:1013900051978430910598F48A819B81011511053C
:1013A00021F0F8019383828304C01B969C938E9353
:1013B0001A97FE0181919191840F951F0DC0FE0136
:1013C000E80FF91F718360830297998388832191C5
:1013D0003191CA01820F931F51969C938E9350971F
:1013E00039C054968D919C915597892B41F4529612
:1013F0008D919C91539755969C938E9354975696A6
:101400008D919C9157975496ED91FC915597E817C3
:10141000F907F0F48E1B9F0B86179707C8F09B0106
:101420002E5F3F4F8217930798F02E0F3F1F559660
:101430003C932E9354976193719350968D919C9108
:101440005197680F791F51967C936E93509702C005
:10145000E0E0F0E0CF01DF91CF911F910F91FF907D
:10146000EF9008950F931F93CF93DF93392F8B0144
:10147000282F990F990B492F592F692F792F892FD1
:10148000AEEF0E948F27F9010115110509F48DC0F7
:1014900084859585019795878487D8015E914E91C3
:1014A00080899189841B950B918B808B13961C925C
:1014B0001E92129782859385009751F4400F511F19
:1014C000848995898417950761F5B58BA48B6DC0C8
:1014D000EC0120E030E0CA17DB0740F46A817B8131
:1014E0009E016115710501F1EB01F5CF1396DC93B7
:1014F000CE931297040F151FC017D10779F4688196
:101500007981460F571F4E5F5F4F11965C934E9344
:101510004A815B8113965C934E9312972115310596
:1015200019F4B387A28741C0E901BB83AA83A9014B
:101530004E5F5F4F08811981BA01600F711FA617B6
:10154000B70779F46D917C911197600F711F6E5FF1
:101550007F4F7983688312966D917C9113977B837B
:101560006A83A0E0B0E0EC012A813B8121153105BE
:1015700031F0AC014E5F5F4FDC01C901F4CF8881CF
:101580009981840F951F248935892817390769F4B3
:10159000109719F41386128604C013961C921E929B
:1015A000129742505109558B448BDF91CF911F9177
:1015B0000F910895AF92BF92CF92DF92EF92FF9278
:1015C0000F931F93CF93DF93FB013297A080B180DD
:1015D000009719F4E12CF12C24C06A018B01EC0175
:1015E000E881F9810680F781E02DBA0109957C0137
:1015F000892B81F3E881F9810484F585E02DAC1411
:10160000BD0410F4950101C09601A801B701CE01F7
:101610000995E881F9810084F185E02DB801CE01BA
:101620000995C701DF91CF911F910F91FF90EF9026
:10163000DF90CF90BF90AF900895892B51F0FA01C1
:10164000DB01240F351FE217F30719F081918D9309
:10165000FACFCB010895892B41F0FB01260F371FEC
:10166000E217F30711F04193FBCFCB010895892BCB
:10167000A9F0FB01DA01260F371F8FEF9FEFE2176A
:10168000F30759F051914D91541740F0451748F028
:101690005413F5CF80E090E0F2CF08958FEF9FEFE5
:1016A000089581E090E00895FC01892B39F02281B2
:1016B0003381C90101969383828308958FEF9FEF51
:1016C0000895FC01892B39F022813381C9010197EA
:1016D0009383828308958FEF9FEF0895FC01CA01E1
:1016E000309721F00680F781E02D09948FEF9FEF6E
:1016F0000895009711F00896089580E090E008950D
:10170000009719F0885B9F4F089580E090E008955E
:10171000009719F0885A9F4F089580E090E008954F
:10172000FB019C012E5E3F4FDC015D91CD0141919B
:10173000541305C0A217B307B9F781E0089580E0FC
:101740000895EF92FF920F931F93CF93DF93EC01D5
:101750007B018A0161E776E0C7010E94900B81114D
:1017600007C06FE576E0C7010E94900B882369F0FF
:10177000F801D183C083E881F9810280F381E02DF3
:10178000CE01099580E090E005C0F8011182108239
:101790008FEF9FEFDF91CF911F910F91FF90EF900F
:1017A00008958F929F92AF92BF92CF92DF92EF9265
:1017B000FF920F931F93CF93DF9300D0CDB7DEB787
:1017C0001A821982009719F48FEF9FEF32C07901C6
:1017D0006A015B014C01452B39F061E776E0C901F4
:1017E0000E94900B882381F3D4011496ED91FC9113
:1017F0001597AE014F5F5F4FB601C5010995892B63
:1018000019F789819A810097F9F2DC01ED91FC9139
:101810000190F081E02DA801B70109958C01898123
:101820009A81DC01ED91FC910480F581E02D099510
:10183000C8010F900F90DF91CF911F910F91FF90F2
:10184000EF90DF90CF90BF90AF909F908F900895D2
:10185000FC01892B39F022813381C90101969383E0
:10186000828308958FEF9FEF0895FC01892B39F053
:1018700022813381C90101979383828308958FEF79
:101880009FEF0895089580E090E00895FC01892B72
:1018900039F020853185C9010196918780870895A7
:1018A0008FEF9FEF08954F925F926F927F928F928A
:1018B0009F92AF92BF92CF92DF92EF92FF920F93DF
:1018C0001F93CF93DF93009709F485C04A013B0132
:1018D0007C01DC011E96CD91DC911F97FE018CE00E
:1018E000A82EB12C0FEF1FEFC12CD12C2701BAE08D
:1018F0004B0E511C88859985892BB1F47F826E82AD
:101900009986888688E992E09983888381E090E0CF
:101910009B838A83FD82EC82CE17DF0711F0D38789
:10192000C28780E090E05BC0FFEFCF1ADF0A25E0BE
:10193000C216D10440F4D7011E968D919C911F9739
:101940008A0D9B1D44C08A859B85009731F0ECE091
:10195000AE0EB11CFE01EC01CDCFF70182898823C8
:10196000A9F10115110591F182859385892BD1F497
:10197000608971890190F081E02D0684F785E02D62
:10198000820127EA36E040E050E0C70109958C016A
:10199000892B21F5D7011A968D919C911B97892B44
:1019A00009F4BFCFF70182859385DC01ED91FC91AD
:1019B0000680F781E02D6CE070E00995009771F0EA
:1019C000FC011186108613861286C1CFCE010097C6
:1019D00009F0BDCF03C08FEF9FEF01C0C801DF91B9
:1019E000CF911F910F91FF90EF90DF90CF90BF901C
:1019F000AF909F908F907F906F905F904F900895E1
:101A0000AC01892B99F0952F990F990B9A01492FC9
:101A1000592F692F792F892FAEEF0E948F27F90157
:101A20008085918501969187808708958FEF9FEF3C
:101A300008950F931F93CF93DF93EC018B01B42F85
:101A40009D2F990F990B9E01492F592F692F792F9F
:101A5000892FAEEF0E948F27F901CD2B49F0011598
:101A6000110531F0118B008BB28B80E090E002C049
:101A70008FEF9FEFDF91CF911F910F910895FC01A0
:101A80009F2F990F990B9F01492F592F692F792F5C
:101A9000892FAEEF0E948F27D901EF2B29F05096A6
:101AA0008D919C915197089580E090E00895CF9397
:101AB000DF93FC01EB019F2F990F990B9F01492F99
:101AC000592F692F792F892FAEEF0E948F27D901C7
:101AD000EF2B49F0209739F01796DC93CE931697A9
:101AE00080E090E002C08FEF9FEFDF91CF910895EB
:101AF000CF93DF93FC01EB019F2F990F990B9F016F
:101B0000492F592F692F792F892FAEEF0E948F27E8
:101B1000D901EF2B49F0209739F01596DC93CE933D
:101B2000149780E090E002C08FEF9FEFDF91CF919C
:101B300008958FEF9FEF08958FEF9FEF08950F9314
:101B40001F93CF93DF93009719F48FEF9FEF1CC083
:101B50008B01FC01C685D7856E817F81C8010E94FB
:101B6000900B882359F0198618861B821A821D82D1
:101B70001C821F821E8280E090E006C00A84DB8502
:101B8000C02D209749F7E1CFDF91CF911F910F91A1
:101B90000895AF92BF92CF92DF92EF92FF920F9390
:101BA0001F93CF93DF93009719F48FEF9FEF26C019
:101BB00059016A017B01FC01C685D7856E817F8151
:101BC000C7010E94900B882399F088859985DC01D4
:101BD000ED90FC90D7011696ED91FC911797950129
:101BE000A601BE010995E885F985F182E08206C06B
:101BF0000A84DB85C02D209709F7D7CFDF91CF91DD
:101C00001F910F91FF90EF90DF90CF90BF90AF901A
:101C10000895EF92FF920F931F93CF93DF93FC01F0
:101C20007B018A019F2F990F990B9F01492F592FF3
:101C3000692F792F892FAEEF0E948F27E901EF2BB3
:101C4000E9F101151105D1F163E876E0C7010E94C1
:101C5000900B882351F0F801D183C083E881F9818A
:101C60000280F381E02DCE0123C065E976E0C70153
:101C70000E94900B882359F0CE010296F8019183BF
:101C80008083E881F9810280F381E02D11C06BEC43
:101C900076E0C7010E94900BF801882369F0D18398
:101CA000C083E881F9810280F381E02DCE010296A4
:101CB000099580E090E004C0118210828FEF9FEFC1
:101CC000DF91CF911F910F91FF90EF900895EF92C8
:101CD000FF920F931F93CF93DF930097E9F1411584
:101CE0005105D1F18A017B01EC0163E876E0C7017F
:101CF0000E94900B882371F08C819D81D8018D9377
:101D00009C938C819D81DC01ED91FC910280F3819B
:101D1000E02D1BC069EB76E0C7010E94900B882381
:101D200021F0F801D183C0830AC06BEC76E0C701D3
:101D30000E94900B882369F0D801CD93DC93E88151
:101D4000F9810280F381E02DCE01099580E090E0D9
:101D500005C0F801118210828FEF9FEFDF91CF91C4
:101D60001F910F91FF90EF900895EF92FF920F93C4
:101D70001F93CF93DF93009791F14115510579F1AE
:101D80008A017B01EC0163E876E0C7010E94900BB9
:101D9000882311F0F80115C065E976E0C7010E94BB
:101DA000900B882331F0CE010296F8019183808355
:101DB0000AC06BEC76E0C7010E94900BF801882303
:101DC00061F0D183C083E881F9810280F381E02D45
:101DD000CE01099580E090E004C0118210828FEF5F
:101DE0009FEFDF91CF911F910F91FF90EF9008959A
:101DF0008FEF9FEF0895009731F0FC01758764879E
:101E000080E090E008958FEF9FEF08958091D707CD
:101E10009091D807892B61F581E090E09093D807E5
:101E20008093D7071092DC071092DB071092DA0735
:101E30001092D90788E892E09093D0078093CF075B
:101E400084E792E09093D2078093D1071092E00745
:101E50001092DF071092D4071092D3071092D60782
:101E60001092D50783E997E09093DE078093DD0712
:101E70008FEC97E0FA019183808380E090E00895F1
:101E80000F931F93CF93DF93009771F1DC011A96A4
:101E90002D913C911B97232B39F18C01FC01C685B8
:101EA000D785E096F80182859385209791F06A8521
:101EB0007B856115710569F0DB011A96CD91DC9186
:101EC0001B97DC01ED91FC910084F185E02D0995D3
:101ED000E9CFDC01ED91FC910480F581E02DDF91EB
:101EE000CF911F910F910994DF91CF911F910F9185
:101EF0000895CF93DF93009759F0FC01C085D185F9
:101F00002197D187C087209729F40E94400F02C0F3
:101F1000CFEFDFEFCE01DF91CF910895CF93DF9325
:101F2000AC01892BC1F0952F990F990B9A01492F7C
:101F3000592F692F792F892FAEEF0E948F27C90162
:101F4000F901C085D1852197D187C087209729F4D1
:101F50000E94400F02C0CFEFDFEFCE01DF91CF91A3
:101F600008950F931F93CF93DF9300D0CDB7DEB7C3
:101F70001A821982AE014F5F5F4F0E94A1108981C2
:101F80009A810E9453008C0189819A810E940511D7
:101F9000C8010F900F90DF91CF911F910F9108957D
:101FA000FB01009709F4AEC04115510509F4AAC020
:101FB0002081213009F0A3C02181203109F09FC088
:101FC000228121119CC0DA01238121112AC02481A0
:101FD000211127C02581211124C02681211121C072
:101FE000278121111EC0208521111BC021852111AF
:101FF00018C02285211115C02385211112C0248506
:1020000021110FC0258521110CC02685211109C081
:102010002785211106C02089213019F42189222326
:1020200069F1238121112DC0248121112AC025812C
:10203000211127C02681211124C02781211121C00F
:10204000208521111EC0218521111BC0228521114F
:1020500018C02385211115C02485211112C02585A2
:1020600021110FC0268521110CC02785211109C01F
:102070002089211106C021892A3A19F48D939C9355
:1020800034C0238121113BC02481211138C0258116
:10209000211135C02681211132C0278121112FC085
:1020A000208521112CC02185211129C022852111D3
:1020B00026C02385211123C02485203A01F52585DA
:1020C00021111DC0268521111AC02785211117C095
:1020D00020892130A1F42189213089F4FC01208D4F
:1020E000318D2D933C93808D918DDC01ED91FC9190
:1020F0000280F381E02D099580E090E00895FA01D7
:10210000118210828FEF9FEF0895FC01892B39F027
:1021100026853785C90101969787868708958FEFB1
:102120009FEF0895009719F0FC01758B648B08955B
:10213000009721F0FC0184899589089580E090E062
:102140000895CF92DF92EF92FF920F931F93CF9358
:10215000DF936C017B01EA018091F0079091F10718
:10216000892B09F043C0209709F440C081E090E03A
:102170009093F1078093F00782EA92E09093E3074F
:102180008093E2078091CA019091CB01DC01ED912F
:10219000FC910680F781E02D0AEF17E023E037E09D
:1021A00040E050E060E070E009954091FA075091FE
:1021B000FB07009719F041155105F1F08091CA0114
:1021C0009091CB01DC01ED91FC910084F185E02D33
:1021D00060E070E00995D092F307C092F207F092A8
:1021E000F507E092F40780E090E002C08FEF9FEFE8
:1021F00022EE37E039832883DF91CF911F910F9131
:10220000FF90EF90DF90CF900895CF93DF930097EA
:10221000A9F0EC018E899F89DC01ED91FC9104808D
:10222000F581E02D0995888D998DDC01ED91FC916A
:102230000480F581E02DDF91CF910994DF91CF915A
:102240000895CF93DF93009759F0FC01C685D78599
:102250002197D787C687209729F40E94051102C0CD
:10226000CFEFDFEFCE01DF91CF9108959C01FB010D
:102270009081913009F071C08181803109F06DC089
:102280008281811170C0838181116DC0848181112F
:102290006AC08581811167C08681811164C0878190
:1022A000811161C0808581115EC0818581115BC013
:1022B0008285811158C08385811155C08485811123
:1022C00052C0858581114FC0868581114CC087859C
:1022D000811149C08089811146C081898A3A09F0FB
:1022E00042C02DC08381811138C08481811135C0E5
:1022F0008581811132C0868181112FC08781811132
:102300002CC08085811129C08185811126C08285DC
:10231000811123C08385811120C0848581111DC056
:10232000858581111AC08685811117C08785811125
:1023300014C08089853589F4818981110EC0FA0124
:10234000C90131832083D901ED91FC910280F38191
:10235000E02D099580E090E00895FA011182108245
:102360008FEF9FEF08959281992309F4BBCFF5CFAA
:10237000FC01892B39F022813381C90101969383B5
:10238000828308958FEF9FEF0895FC01892B39F028
:1023900022813381C90101979383828308958FEF4E
:1023A0009FEF08959C01892B39F0CA01F90106803D
:1023B000F781E02D099508958FEF9FEF0895AF9273
:1023C000BF92CF92DF92EF92FF920F931F93CF9322
:1023D000DF9300D0CDB7DEB7F9011A8219820097DA
:1023E00009F477C04115510509F439C02081213025
:1023F00009F072C02181203109F071C022812111C0
:1024000071C02381211171C02481211171C02581E6
:10241000211171C02681211171C02781211171C044
:102420002085211171C02185211171C022852111C2
:1024300071C02385211171C02485211171C02585AA
:10244000211171C02685211171C02785211171C00C
:102450002089211171C021892A3A09F070C07F01B9
:102460009A016B015C01DC011496ED91FC911597CA
:10247000AE014F5F5F4FB901C6010995892B09F085
:1024800061C049815A814115510509F45EC0D501E9
:10249000ED91FC910084F185E02DB601C50109950F
:1024A00089819A81DC01ED91FC910190F081E02D10
:1024B000A801B7010995082F192F89819A81DC019C
:1024C000ED91FC910480F581E02D0995802F912FED
:1024D0003EC08FEF9FEF3BC08FEF9FEF38C08FEF75
:1024E0009FEF35C08FEF9FEF32C08FEF9FEF2FC070
:1024F0008FEF9FEF2CC08FEF9FEF29C08FEF9FEFE3
:1025000026C08FEF9FEF23C08FEF9FEF20C08FEF8C
:102510009FEF1DC08FEF9FEF1AC08FEF9FEF17C087
:102520008FEF9FEF14C08FEF9FEF11C08FEF9FEFE2
:102530000EC08FEF9FEF0BC08FEF9FEF08C08FEFA4
:102540009FEF05C08FEF9FEF02C08FEF9FEF0F90BF
:102550000F90DF91CF911F910F91FF90EF90DF903F
:10256000CF90BF90AF900895009711F0089608950E
:1025700080E090E00895009719F0885B9F4F0895E0
:1025800080E090E00895009719F0885A9F4F0895D1
:1025900080E090E00895009709F4D9C041155105F5
:1025A00009F4D8C0DB012C91213009F0CAC0DA014E
:1025B000FB012181203109F0D5C022812F3309F0A0
:1025C000CCC02381283A09F0C8C024812B3409F0FB
:1025D000C4C025812E3809F0C0C02681273009F0FB
:1025E000BCC02781253D09F0B8C02085233409F0FF
:1025F000B4C02185233309F0B0C02285263B09F001
:10260000ACC02385223109F0A8C02485213F09F000
:10261000A4C025852F3C09F0A0C026852C3209F0E6
:102620009CC02785213909F098C02089243909F0F8
:1026300094C021892F3709F090C08D939C93DC01C1
:10264000ED91FC910280F381E02D099580E090E00E
:1026500008952381203CC9F52481253FB1F52581CA
:102660002C3799F52681273481F52781273D69F597
:1026700020852B3451F52185283F39F522852938CD
:1026800021F523852F3409F524852435F1F425859A
:10269000273CD9F426852D33C1F427852E3FA9F494
:1026A00020892A3F91F421892E3A79F49C012E5FEA
:1026B0003F4F2D933C93DC01ED91FC910280F3811F
:1026C000E02D099580E090E008952281211139C024
:1026D0002381211136C02481211133C0258121118C
:1026E00030C0268121112DC0278121112AC02085CB
:1026F000211127C02185211124C02285211121C04B
:10270000238521111EC0248521111BC0258521117F
:1027100018C02685211115C02785211112C02089D6
:1027200021110FC021892A3A61F48D939C93DC0119
:10273000ED91FC910280F381E02D099580E090E01D
:102740000895FA01118210828FEF9FEF08958FEFA5
:102750009FEF08958FEF9FEF089522812A3209F0AD
:10276000B4CF77CF203109F4B0CFEBCFFC01892B68
:1027700039F024813581C9010196958384830895B8
:102780008FEF9FEF0895FC01892B39F0248135816B
:10279000C90101979583848308958FEF9FEF089572
:1027A00021E030E0892B11F020E030E088279927E4
:1027B000821B930B089521E030E0892B11F020E07B
:1027C00030E088279927821B930B089521E030E0A1
:1027D000892B11F020E030E088279927821B930B8A
:1027E000089521E030E0892B11F020E030E08827C7
:1027F0009927821B930B089521E030E0892B11F07B
:1028000020E030E088279927821B930B089521E070
:1028100030E0892B11F020E030E088279927821BD7
:10282000930B089521E030E0892B11F020E030E097
:1028300088279927821B930B089521E030E0892B8C
:1028400011F020E030E088279927821B930B089530
:1028500021E030E0892B11F020E030E08827992733
:10286000821B930B089521E030E0892B11F020E0CA
:1028700030E088279927821B930B0895CF93DF932D
:10288000EC01892B09F471C06A87EB85F0E0908137
:102890008D85892B8083EE85F0E090818889892B56
:1028A00080838A8585FF18C0E989F0E090818B8953
:1028B000892B8083EC89F0E090818E89892B80833D
:1028C000EF89F0E09081898D892B8083EA8DF0E09B
:1028D00090818C8D892B8083ED8DF0E090818F8DA0
:1028E000892B8083E8A1F0E090818AA1892B8083E5
:1028F000EBA1F0E090818DA1892B8083EEA1F0E027
:10290000908188A5892B8083462F4062E881F981D8
:10291000048CF58DE02D60E0CE010995E881F98108
:10292000048CF58DE02D42E060E0CE010995E88150
:10293000F981048CF58DE02D4CE060E0CE01099525
:10294000E881F981048CF58DE02D41E060E0CE0155
:102950000995E881F981048CF58DE02D40E860E06F
:10296000CE01099580E090E002C08FEF9FEFDF91EC
:10297000CF91089521E030E0892B11F020E030E084
:1029800088279927821B930B08950F931F93CF934A
:10299000DF93EA01009709F4E9C0209709F4E9C040
:1029A000DB012C91213009F0DCC08A01FB01A92F49
:1029B000AA0FAA0B282F392F4A2F5A2F6A2F7A2FA6
:1029C0008A2F9A2FAEEF0E948F27822F932F21817B
:1029D000203109F0D6C022812F3309F0CDC02381E8
:1029E000283A09F0C9C024812B3409F0C5C02581DB
:1029F0002E3809F0C1C02681273009F0BDC02781DB
:102A0000253D09F0B9C02085233409F0B5C02185E2
:102A1000233309F0B1C02285263B09F0ADC02385E0
:102A2000223109F0A9C02485213F09F0A5C02585E0
:102A30002F3C09F0A1C026852C3209F09DC02785C6
:102A4000213909F099C02089243909F095C02189DC
:102A50002F3709F091C099838883DC01ED91FC91B7
:102A60000280F381E02D099580E090E08EC0238103
:102A7000203CD1F52481253FB9F525812C37A1F5DE
:102A80002681273489F52781273D71F520852B3450
:102A900059F52185283F41F52285293829F52385D7
:102AA0002F3411F524852435F9F42585273CE1F4EC
:102AB00026852D33C9F427852E3FB1F420892A3F7E
:102AC00099F421892E3A81F49C012E5F3F4FF80141
:102AD00031832083DC01ED91FC910280F381E02DB4
:102AE000099580E090E051C0228121113AC02381F4
:102AF000211137C02481211134C02581211131C019
:102B0000268121112EC0278121112BC02085211162
:102B100028C02185211125C02285211122C02385AD
:102B200021111FC0248521111CC02585211119C028
:102B30002685211116C02785211113C02089211156
:102B400010C021892A3A69F4F80191838083DC015D
:102B5000ED91FC910280F381E02D099580E090E0F9
:102B600014C0198218828FEF9FEF0FC08FEF9FEF75
:102B70000CC08FEF9FEF09C022812A3209F0B4CF39
:102B800076CF203109F4B0CFECCFDF91CF911F91F8
:102B90000F910895AC01892BA9F0952F990F990BEE
:102BA000242F352F492F592F692F792F892FAEEFD9
:102BB0000E948F27E22FF32F8481958101969583C0
:102BC000848308958FEF9FEF0895AC01892BA9F0BE
:102BD000952F990F990B242F352F492F592F692F96
:102BE000792F892FAEEF0E948F27E22FF32F848158
:102BF000958101979583848308958FEF9FEF0895C2
:102C0000CF93DF9300D0CDB7DEB7FC019F2F990F94
:102C1000990B2E2F3F2F492F592F692F792F892F4D
:102C2000AEEF0E948F27A22FB32F1A821982EF2BAB
:102C300079F09E012F5F3F4FAD0160E070E0189684
:102C40008D919C9119970E94911A89819A8102C055
:102C50008FEF9FEF0F900F90DF91CF9108958F929C
:102C60009F92AF92BF92CF92DF92EF92FF924B0171
:102C70005C0120E030E0A9010E9449271816BCF051
:102C80001CC000000197E9F720E030E040E85FE376
:102C9000C701B6010E948C266B017C019B01AC012F
:102CA000C501B4010E944927181624F006C0C12CA2
:102CB000D12C760187EB9CE0E4CF80E090E0FF90A0
:102CC000EF90DF90CF90BF90AF909F908F9008953E
:102CD0001F93CF93DF93EC01892B09F40EC161118F
:102CE00008C0EC85F0E090818D85809589238083F4
:102CF00008C0EC85F0E0808191812D85822B918345
:102D00008083142F60E070E080EA90E40E942F1628
:102D1000112344F0EFA1F0E0908188A580958923EC
:102D2000808306C0EFA1F0E0908188A5892B808385
:102D300016FD08C0ECA1F0E090818DA1809589235B
:102D4000808306C0ECA1F0E090818DA1892B808367
:102D500015FD08C0E9A1F0E090818AA18095892342
:102D6000808306C0E9A1F0E090818AA1892B80834D
:102D700014FD08C0EE8DF0E090818F8D8095892341
:102D8000808306C0EE8DF0E090818F8D892B80834B
:102D90008A8585FF47C013FD08C0EB8DF0E0908168
:102DA0008C8D80958923808308C0EB8DF0E0808135
:102DB00091812C8D822B9183808312FD08C0E88D38
:102DC000F0E09081898D80958923808306C0E88D0D
:102DD000F0E09081898D892B808311FD08C0ED89F9
:102DE000F0E090818E8980958923808306C0ED89EB
:102DF000F0E090818E89892B808310FD0AC0EA89DA
:102E0000F0E090818B8980958923808380E090E039
:102E100076C0EA89F0E090818B89892B808380E0FD
:102E200090E06DC0EF85F0E090818889892B8083E8
:102E300060E070E080EA90E40E942F16EF85F0E0F9
:102E40009081888980958923808313FD08C0EFA134
:102E5000F0E0908188A580958923808308C0EFA148
:102E6000F0E08081918128A5822B9183808312FDDF
:102E700008C0ECA1F0E090818DA18095892380832A
:102E800006C0ECA1F0E090818DA1892B808311FD1B
:102E900008C0E9A1F0E090818AA180958923808310
:102EA00006C0E9A1F0E090818AA1892B808310FD02
:102EB00008C0EE8DF0E090818F8D8095892380830E
:102EC00006C0EE8DF0E090818F8D892B8083EF8599
:102ED000F0E090818889892B808360E070E080EA4F
:102EE00090E40E942F16EF85F0E09081888980950C
:102EF0008923808380E090E002C08FEF9FEFDF9115
:102F0000CF911F910895009719F0FC017187608798
:102F10008FEF9FEF089541155105D9F080915A0325
:102F200090915B038230910530F0019690935B03A2
:102F300080935A0306C081E090E090935B038093F6
:102F40005A0386E593E0FA019183808380E090E064
:102F500008958FEF9FEF0895009709F4D9C04115A8
:102F6000510509F4D8C0DB012C91213009F0CAC009
:102F7000DA01FB012181203109F0D5C022812D31F8
:102F800009F0CCC02381293509F0C8C0248125343B
:102F900009F0C4C02581263009F0C0C0268129303F
:102FA00009F0BCC027812E3909F0B8C0208525342E
:102FB00009F0B4C021852E3509F0B0C02285213832
:102FC00009F0ACC02385273509F0A8C024852B3330
:102FD00009F0A4C02585203409F0A0C026852A3E2A
:102FE00009F09CC027852D3609F098C020892F351F
:102FF00009F094C02189223309F090C08D939C93ED
:10300000DC01ED91FC910280F381E02D099580E0D7
:1030100090E008952381263DC9F524812134B1F53E
:103020002581223799F52681233781F52781243D93
:1030300069F52085293451F52185213F39F522850F
:103040002B3821F523852B3509F524852530F1F41E
:1030500025852B3BD9F42685233FC1F427852532CE
:10306000A9F42089233E91F42189293379F49C0124
:103070002E5F3F4F2D933C93DC01ED91FC9102803C
:10308000F381E02D099580E090E0089522812111DF
:1030900039C02381211136C02481211133C02581FB
:1030A000211130C0268121112DC0278121112AC074
:1030B0002085211127C02185211124C022852111BD
:1030C00021C0238521111EC0248521111BC0258507
:1030D000211118C02685211115C02785211112C084
:1030E000208921110FC021892A3A61F48D939C9384
:1030F000DC01ED91FC910280F381E02D099580E0E7
:1031000090E00895FA01118210828FEF9FEF0895E9
:103110008FEF9FEF08958FEF9FEF08952281203268
:1031200009F0B4CF77CF203109F4B0CFEBCFFC0159
:10313000892B39F024813581C901019695838483D7
:1031400008958FEF9FEF08950F931F93CF93DF9311
:10315000EA01009709F4E9C0209709F4E9C0DB010E
:103160002C91213009F0DCC08A01FB01A92FAA0FA4
:10317000AA0B282F392F4A2F5A2F6A2F7A2F8A2FDE
:103180009A2FAEEF0E948F27822F932F218120311B
:1031900009F0D6C022812D3109F0CDC02381293517
:1031A00009F0C9C02481253409F0C5C02581263025
:1031B00009F0C1C02681293009F0BDC027812E3910
:1031C00009F0B9C02085253409F0B5C021852E3518
:1031D00009F0B1C02285213809F0ADC0238527351B
:1031E00009F0A9C024852B3309F0A5C0258520341A
:1031F00009F0A1C026852A3E09F09DC027852D36FD
:1032000009F099C020892F3509F095C02189223312
:1032100009F091C099838883DC01ED91FC910280D3
:10322000F381E02D099580E090E08EC02381263D5A
:10323000D1F524812134B9F525812237A1F52681E4
:10324000233789F52781243D71F52085293459F5E7
:103250002185213F41F522852B3829F523852B3502
:1032600011F524852530F9F425852B3BE1F42685DD
:10327000233FC9F427852532B1F42089233E99F4F0
:103280002189293381F49C012E5F3F4FF80131835E
:103290002083DC01ED91FC910280F381E02D099502
:1032A00080E090E051C0228121113AC02381211198
:1032B00037C02481211134C02581211131C02681DC
:1032C00021112EC0278121112BC02085211128C05A
:1032D0002185211125C02285211122C0238521119C
:1032E0001FC0248521111CC02585211119C02685E8
:1032F000211116C02785211113C02089211110C06A
:1033000021892A3A69F4F80191838083DC01ED91E7
:10331000FC910280F381E02D099580E090E014C0DB
:10332000198218828FEF9FEF0FC08FEF9FEF0CC0B5
:103330008FEF9FEF09C02281203209F0B4CF76CF02
:10334000203109F4B0CFECCFDF91CF911F910F91D5
:103350000895AC01892BA9F0952F990F990B242F73
:10336000352F492F592F692F792F892FAEEF0E94C2
:103370008F27E22FF32F8481958101969583848393
:1033800008958FEF9FEF089521E030E0892B11F031
:1033900020E030E088279927821B930B089521E0D5
:1033A00030E0892B11F020E030E088279927821B3C
:1033B000930B089521E030E0892B11F020E030E0FC
:1033C00088279927821B930B089521E030E0892BF1
:1033D00011F020E030E088279927821B930B089595
:1033E00021E030E0892B11F020E030E08827992798
:1033F000821B930B08958F929F92AF92BF92CF92B0
:10340000DF92EF92FF920F931F93CF93DF93CDB78D
:10341000DEB760970FB6F894DEBF0FBECDBF21E0D8
:1034200030E0892B11F020E030E088279927821BBB
:10343000930B60960FB6F894DEBF0FBECDBFDF9141
:10344000CF911F910F91FF90EF90DF90CF90BF90A1
:10345000AF909F908F90089521E030E0892B11F07C
:1034600020E030E088279927821B930B089521E004
:1034700030E0892B11F020E030E088279927821B6B
:10348000930B08950F931F93CF93DF93FC01E901F2
:103490009F2F990F990B2E2F3F2F492F592F692FAF
:1034A000792F892FAEEF0E948F27022F132FEF2B3A
:1034B00031F04881411106C080E090E017C02097AC
:1034C000C1F712C02196D80116968D919C9117973D
:1034D000DC01ED91FC91048CF58DE02D61E0099506
:1034E00049914111F0CF02C08FEF9FEFDF91CF9153
:1034F0001F910F91089521E030E0892B11F020E019
:1035000030E088279927821B930B089521E030E053
:10351000892B11F020E030E088279927821B930B3C
:10352000089521153105E9F08091AB039091AC032A
:103530008230910530F001969093AC038093AB03F9
:1035400006C081E090E09093AC038093AB03E7EA80
:10355000F3E057834683D901ED93FC9380E090E03C
:1035600008958FEF9FEF0895DC0116968D919C9141
:103570001797DC01ED91FC910480F581E02D099510
:103580000895CF93DF93009759F0FC01C481D58152
:103590002197D583C483209729F40E94B41A02C0CE
:1035A000CFEFDFEFCE01DF91CF910895CF93DF937F
:1035B000AC01892BD1F0952F990F990B242F352F22
:1035C000492F592F692F792F892FAEEF0E948F270E
:1035D000E22FF32FC481D5812197D583C48320970F
:1035E00031F4CF010E94B41A02C0CFEFDFEFCE0159
:1035F000DF91CF910895FB012081213009F06EC049
:103600002181203109F06AC02281211167C0238104
:1036100021112AC02481211127C02581211124C014
:103620002681211121C0278121111EC02085211151
:103630001BC02185211118C02285211115C02385A9
:10364000211112C0248521110FC0258521110CC024
:103650002685211109C02785211106C02089211145
:1036600003C021892A3A69F12381211137C02481BD
:10367000211134C02581211131C0268121112EC094
:10368000278121112BC02085211128C021852111DE
:1036900025C02285211122C0238521111FC0248528
:1036A00021111CC02585211119C02685211116C0A4
:1036B0002785211113C02089253581F42189211105
:1036C0000DC0FA0191838083DC01ED91FC910280B1
:1036D000F381E02D099580E090E00895FA011182D0
:1036E00010828FEF9FEF0895FC01892B39F0228122
:1036F0003381C90101969383828308958FEF9FEFF1
:103700000895FC01892B39F022813381C901019789
:103710009383828308958FEF9FEF0895FC01CA0180
:10372000309721F00680F781E02D09948FEF9FEF0D
:103730000895AF92BF92CF92DF92EF92FF920F93D4
:103740001F93CF93DF9300D0CDB7DEB7F9011A8274
:103750001982009719F48FEF9FEF70C04115510542
:10376000B1F120812130B9F721812031A1F72281E7
:103770002111F1CF23812111EECF24812111EBCF33
:1037800025812111E8CF26812111E5CF2781211143
:10379000E2CF20852111DFCF21852111DCCF2285C9
:1037A0002111D9CF23852111D6CF24852111D3CF43
:1037B00025852111D0CF26852111CDCF2785211137
:1037C000CACF20892111C7CF21892A3A21F67F014A
:1037D0009A015B016C01DC011496ED91FC91159747
:1037E000AE014F5F5F4FB901C5010995892B09F003
:1037F000B2CF49815A814115510509F4ACCFD601A8
:10380000ED91FC910084F185E02DB501C60109958B
:1038100089819A81DC01ED91FC910190F081E02D8C
:10382000A801B70109957C0189819A81DC01ED919C
:10383000FC910480F581E02D0995C7010F900F9050
:10384000DF91CF911F910F91FF90EF90DF90CF907C
:10385000BF90AF900895009711F00896089580E00A
:1038600090E00895009719F0885B9F4F089580E0DD
:1038700090E00895009719F0885A9F4F089580E0CE
:1038800090E00895892B21F0CB01840F951F0895B6
:103890008FEF9FEF0895892B21F0CB01841B950BAF
:1038A00008958FEF9FEF0895FB01009709F48AC0F8
:1038B0004115510509F486C02081213009F07FC0EF
:1038C0002181203109F07BC0DA0122812339E1F521
:1038D0002381223209F073C02481213109F06FC0A5
:1038E0002581263109F06BC02681223209F067C09C
:1038F0002781283409F063C02085273409F05FC090
:103900002185223409F05BC022852E3A09F057C088
:103910002385263009F053C02485223809F04FC092
:103920002585213809F04BC02685243909F047C088
:103930002785273409F043C02089243809F03FC087
:1039400021892D33E1F52FC0211139C023812111A7
:1039500036C02481211133C02581211130C0268138
:1039600021112DC0278121112AC02085211127C0B6
:103970002185211124C02285211121C023852111F7
:103980001EC0248521111BC02585211118C0268544
:10399000211115C02785211112C0208921110FC0C6
:1039A00021892A3A61F48D939C93DC01ED91FC917D
:1039B0000280F381E02D099580E090E00895FA01FE
:1039C000118210828FEF9FEF0895FC01892B39F04F
:1039D00020853185C90101969187808708958FEFF1
:1039E0009FEF0895EF92FF920F931F93CF93DF9372
:1039F0000097F1F041155105D9F08A017B01EC01E6
:103A0000EA81FB8109950097C1F08E859F8500971B
:103A100091F0DC01ED91FC910190F081E02DA80185
:103A2000B701DF91CF911F910F91FF90EF90099413
:103A30008FEF9FEF02C080E090E0DF91CF911F9168
:103A40000F91FF90EF900895009789F0FC01A685F3
:103A5000B785109721F40480F581E02D07C0ED9122
:103A6000FC9111970280F381E02DCD0109948FEF35
:103A70009FEF0895009789F0FC01A685B785109700
:103A800021F40680F781E02D07C0ED91FC9111979C
:103A90000480F581E02DCD0109948FEF9FEF08950B
:103AA000009731F0FC017587648780E090E008950D
:103AB0008FEF9FEF0895AF92BF92CF92DF92EF9278
:103AC000FF920F931F93CF93DF9300D000D000D0CD
:103AD000CDB7DEB71E821D821C821B821A8219821C
:103AE0004115510509F487C0009709F484C07A0193
:103AF0006B01DC01ED91FC910190F081E02DAE01B4
:103B00004B5F5F4F6BE477E00995AD81BE81009715
:103B100019F0109709F471C0ED91FC911197019083
:103B2000F081E02DAE014D5F5F4F69E377E0CD019D
:103B300009955C018B819C81DC01ED91FC910684EF
:103B4000F785E02D8E010F5F1F4F27E237E040E041
:103B500050E065E177E0099589819A81A114B1046B
:103B600069F0009759F48D819E81DC01ED91FC9103
:103B70000480F581E02D0995C5013FC0DC01ED9180
:103B8000FC910680F781E02D60E170E00995FC0171
:103B90008D819E819587848789819A819387828789
:103BA00081E090E0918780878BE794E09183808328
:103BB00084E59CE19383828385EE9CE195838483F5
:103BC0008CE39EE197838683C114D10419F4178690
:103BD000168602C0D786C686D701ED93FC938B81EB
:103BE0009C81DC01ED91FC910480F581E02D09952B
:103BF00080E090E002C08FEF9FEF26960FB6F8941A
:103C0000DEBF0FBECDBFDF91CF911F910F91FF900F
:103C1000EF90DF90CF90BF90AF9008950F931F93D8
:103C2000CF93DF93009719F1EC010A851B858C85F2
:103C30009D85009739F0DC01ED91FC910480F581C0
:103C4000E02D0995D801ED91FC910084F185E02DDE
:103C5000BE01C8010995D801ED91FC910480F58160
:103C6000E02DC801DF91CF911F910F910994DF9151
:103C7000CF911F910F910895CF93DF93009759F043
:103C8000FC01C085D1852197D187C087209729F471
:103C90000E940E1E02C0CFEFDFEFCE01DF91CF9169
:103CA00008959C01FB019081913009F071C08181E0
:103CB000803109F06DC08281811170C083818111D2
:103CC0006DC0848181116AC08581811167C0868140
:103CD000811164C08781811161C0808581115EC0BE
:103CE000818581115BC08285811158C083858111D6
:103CF00055C08485811152C0858581114FC086854C
:103D000081114CC08785811149C08089811146C0CD
:103D100081898A3A09F042C02DC08381811138C05F
:103D20008481811135C08581811132C086818111E4
:103D30002FC0878181112CC08085811129C0818588
:103D4000811126C08285811123C08385811120C005
:103D5000848581111DC0858581111AC086858111D8
:103D600017C08785811114C08089853589F48189C0
:103D700081110EC0FA01C90131832083D901ED916F
:103D8000FC910280F381E02D099580E090E0089598
:103D9000FA01118210828FEF9FEF0895928199238B
:103DA00009F4BBCFF5CFFC01892B39F02281338197
:103DB000C90101969383828308958FEF9FEF089541
:103DC000FC01892B39F022813381C901019793834A
:103DD000828308958FEF9FEF08959C01892B39F01E
:103DE000CA01F9010680F781E02D099508958FEF4A
:103DF0009FEF0895AF92BF92CF92DF92EF92FF9222
:103E00000F931F93CF93DF9300D0CDB7DEB7F901A7
:103E10001A821982009709F477C04115510509F4F7
:103E200039C02081213009F072C02181203109F090
:103E300071C02281211171C02381211171C024819F
:103E4000211171C02581211171C02681211171C0FC
:103E50002781211171C02085211171C02185211177
:103E600071C02285211171C02385211171C0248563
:103E7000211171C02585211171C02685211171C0C4
:103E80002785211171C02089211171C021892A3A09
:103E900009F070C07F019A016B015C01DC0114968E
:103EA000ED91FC911597AE014F5F5F4FB901C601CF
:103EB0000995892B09F061C049815A814115510545
:103EC00009F45EC0D501ED91FC910084F185E02DEF
:103ED000B601C501099589819A81DC01ED91FC91BA
:103EE0000190F081E02DA801B7010995082F192F45
:103EF00089819A81DC01ED91FC910480F581E02DAE
:103F00000995802F912F3EC08FEF9FEF3BC08FEF21
:103F10009FEF38C08FEF9FEF35C08FEF9FEF32C01C
:103F20008FEF9FEF2FC08FEF9FEF2CC08FEF9FEF92
:103F300029C08FEF9FEF26C08FEF9FEF23C08FEF39
:103F40009FEF20C08FEF9FEF1DC08FEF9FEF1AC034
:103F50008FEF9FEF17C08FEF9FEF14C08FEF9FEF92
:103F600011C08FEF9FEF0EC08FEF9FEF0BC08FEF51
:103F70009FEF08C08FEF9FEF05C08FEF9FEF02C04C
:103F80008FEF9FEF0F900F90DF91CF911F910F91C7
:103F9000FF90EF90DF90CF90BF90AF900895009783
:103FA00011F00896089580E090E00895009719F0C8
:103FB000885B9F4F089580E090E00895009719F086
:103FC000885A9F4F089580E090E00895009709F483
:103FD000D9C04115510509F4D8C0DB012C9121301D
:103FE00009F0CAC0DA01FB012181203109F0D5C0F6
:103FF00022812F3009F0CCC02381253009F0C8C0C0
:104000002481283F09F0C4C025812C3009F0C0C0AC
:104010002681223E09F0BCC027812E3E09F0B8C09F
:104020002085293409F0B4C02185203309F0B0C0BF
:104030002285213B09F0ACC02385293D09F0A8C0A9
:104040002485273A09F0A4C02585253C09F0A0C0A5
:104050002685273509F09CC02785213809F098C0AE
:1040600020892C3409F094C021892E3409F090C0A5
:104070008D939C93DC01ED91FC910280F381E02D06
:10408000099580E090E008952381293BC9F52481BA
:104090002133B1F525812B3C99F52681223F81F50D
:1040A00027812E3069F520852F3451F521852D3358
:1040B00039F52285283921F52385283E09F52485FF
:1040C000273AF1F425852235D9F426852E33C1F41B
:1040D00027852634A9F42089283C91F421892C3B9A
:1040E00079F49C012E5F3F4F2D933C93DC01ED91C1
:1040F000FC910280F381E02D099580E090E0089525
:104100002281211139C02381211136C0248121113E
:1041100033C02581211130C0268121112DC0278176
:1041200021112AC02085211127C02185211124C0F9
:104130002285211121C0238521111EC02485211132
:104140001BC02585211118C02685211115C0278582
:10415000211112C0208921110FC021892A3A61F44E
:104160008D939C93DC01ED91FC910280F381E02D15
:10417000099580E090E00895FA01118210828FEF96
:104180009FEF08958FEF9FEF08958FEF9FEF0895B2
:104190002281283509F0B4CF77CF203109F4B0CF90
:1041A000EBCFFC01892B39F024813581C9010196BF
:1041B0009583848308958FEF9FEF0895FC01892BE9
:1041C00039F024813581C90101979583848308954D
:1041D0008FEF9FEF0895FC01892B09F484C0668757
:1041E00081E090E09C0102C0220F331F6A95E2F744
:1041F00021502787408B02C0880F991F4A95E2F70C
:104200008150818BA589B0E09C9187898095892315
:104210008C93A689B0E09C918789892B8C93A18D82
:10422000B0E09C91838D809589238C93A28DB0E022
:104230009C91838D892B8C93A58DB0E09C91878D6B
:10424000809589238C93A68DB0E09C91878D892BD6
:104250008C938685843068F0A1A1B0E09C9183A105
:10426000809589238C93A2A1B0E09C9183A1892B96
:104270008C93A2A5B0E09C9183A5809589238C9313
:10428000A1A5B0E09C9183A5892B8C93A6A5B0E055
:104290009C9187A5809589238C93A5A5B0E09C91DE
:1042A00087A5892B8C93A2A9B0E09C9183A98095C6
:1042B00089238C93A1A9B0E09C9183A9892B8C932D
:1042C0008089843098F0A6A9B0E09C9187A9809558
:1042D00089238C93A5A9B0E09C9187A9892B8C9305
:1042E00080E090E008958FEF9FEF089580E090E0E8
:1042F0000895009741F0FC014287538764877587D2
:1043000080E090E008958FEF9FEF0895009731F0DF
:10431000FC01738B628B80E090E008958FEF9FEF3C
:1043200008950F931F93CF93DF93EA01009709F449
:10433000E9C0209709F4E9C0DB012C91213009F094
:10434000DCC08A01FB01A92FAA0FAA0B282F392F45
:104350004A2F5A2F6A2F7A2F8A2F9A2FAEEF0E9458
:104360008F27822F932F2181203109F0D6C02281FF
:104370002F3009F0CDC02381253009F0C9C0248138
:10438000283F09F0C5C025812C3009F0C1C0268125
:10439000223E09F0BDC027812E3E09F0B9C020851C
:1043A000293409F0B5C02185203309F0B1C0228538
:1043B000213B09F0ADC02385293D09F0A9C0248522
:1043C000273A09F0A5C02585253C09F0A1C026851E
:1043D000273509F09DC02785213809F099C020892B
:1043E0002C3409F095C021892E3409F091C09983AD
:1043F0008883DC01ED91FC910280F381E02D099529
:1044000080E090E08EC02381293BD1F524812133C7
:10441000B9F525812B3CA1F52681223F89F527811D
:104420002E3071F520852F3459F521852D3341F536
:104430002285283929F52385283E11F52485273A38
:10444000F9F425852235E1F426852E33C9F4278534
:104450002634B1F42089283C99F421892C3B81F43D
:104460009C012E5F3F4FF80131832083DC01ED91E9
:10447000FC910280F381E02D099580E090E051C02D
:10448000228121113AC02381211137C024812111B9
:1044900034C02581211131C0268121112EC02781F0
:1044A00021112BC02085211128C02185211125C073
:1044B0002285211122C0238521111FC024852111AD
:1044C0001CC02585211119C02685211116C02785FC
:1044D000211113C02089211110C021892A3A69F4C1
:1044E000F80191838083DC01ED91FC910280F381DE
:1044F000E02D099580E090E014C0198218828FEFBA
:104500009FEF0FC08FEF9FEF0CC08FEF9FEF09C0A1
:104510002281283509F0B4CF76CF203109F4B0CF0D
:10452000ECCFDF91CF911F910F910895AC01892BB2
:10453000A9F0952F990F990B242F352F492F592F1B
:10454000692F792F892FAEEF0E948F27E22FF32F4B
:104550008481958101969583848308958FEF9FEFE1
:104560000895AC01892BA9F0952F990F990B242F51
:10457000352F492F592F692F792F892FAEEF0E94A0
:104580008F27E22FF32F8481958101979583848370
:1045900008958FEF9FEF0895EF92FF920F931F936F
:1045A000CF93DF93EC01B62F142FF22E9D2F990F8E
:1045B000990B2C2F3D2F492F592F692F792F892F98
:1045C000AEEF0E948F27E22FF32FCD2B69F1B111AF
:1045D00007C0048BF58A168BE78A80E090E029C03B
:1045E000B13039F4008FF18E128FE38E80E090E0CD
:1045F00020C0B23039F4048FF58E168FE78E80E03C
:1046000090E017C0B33039F400A3F1A212A3E3A2E3
:1046100080E090E00EC0B43051F404A3F5A216A3DC
:10462000E7A280E090E005C08FEF9FEF02C08FEF20
:104630009FEFDF91CF911F910F91FF90EF90089521
:10464000EF92FF920F931F93CF93DF93EC01B62F5E
:10465000142FF22E9D2F990F990B2C2F3D2F492FA0
:10466000592F692F792F892FAEEF0E948F27E22FC4
:10467000F32FCD2B21F1B11107C000A7F1A612A78E
:10468000E3A680E090E020C0B13039F404A7F5A69D
:1046900016A7E7A680E090E017C0B23039F400AB6F
:1046A000F1AA12ABE3AA80E090E00EC0B33051F45F
:1046B00004ABF5AA16ABE7AA80E090E005C08FEF47
:1046C0009FEF02C08FEF9FEFDF91CF911F910F916E
:1046D000FF90EF9008958F929F92AF92BF92CF92EA
:1046E000DF92EF92FF924B015C0120E030E0A901E4
:1046F0000E9449271816BCF01CC000000197E9F77A
:1047000020E030E040E85FE3C701B6010E948C265C
:104710006B017C019B01AC01C501B4010E944927DA
:10472000181624F006C0C12CD12C760187EB9CE032
:10473000E4CF80E090E0FF90EF90DF90CF90BF90CB
:10474000AF909F908F900895FC01892B71F1A489FF
:10475000B0E09C918789982381E009F480E09685F8
:10476000923020F1A08DB0E03C91238D232309F0FD
:1047700082609330D8F0A48DB0E03C91278D232344
:1047800009F08460943090F0A0A1B0E03C9123A1A6
:10479000232309F08860953048F0A4A1B0E02C9163
:1047A00097A1922319F0806108958FEF08950F93D8
:1047B0001F93CF93DF93009709F435C2EC0100E01B
:1047C00001C0022FED89F0E090818F8980958923C7
:1047D0008083EE89F0E090818F89892B80838E859C
:1047E0008230E8F1E98DF0E090818B8D809589230E
:1047F0008083EA8DF0E090818B8D892B80838E857C
:10480000833068F1ED8DF0E090818F8D8095892364
:104810008083EE8DF0E090818F8D892B80838E8553
:104820008430E8F0E9A1F0E090818BA180958923A4
:104830008083EAA1F0E090818BA1892B80838E8513
:10484000853068F0EDA1F0E090818FA180958923FB
:104850008083EEA1F0E090818FA1892B8083EAA56F
:10486000F0E090818BA5809589238083E9A5F0E015
:1048700090818BA5892B80838889823068F1EEA591
:10488000F0E090818FA5809589238083EDA5F0E0ED
:1048900090818FA5892B808388898330E8F0EAA9ED
:1048A000F0E090818BA9809589238083E9A9F0E0CD
:1048B00090818BA9892B80838889843068F0EEA948
:1048C000F0E090818FA9809589238083EDA9F0E0A5
:1048D00090818FA9892B8083CE010E94A423182F59
:1048E00060E070E080EA91E40E946B23CE010E94B8
:1048F000A4231813F1CFE9A5F0E020819BA59095A2
:1049000092239083EAA5F0E020819BA5922B9083CF
:104910009889923068F1EDA5F0E020819FA59095EF
:1049200092239083EEA5F0E020819FA5922B9083A7
:1049300098899330E8F0E9A9F0E020819BA990954F
:1049400092239083EAA9F0E020819BA9922B908387
:104950009889943068F0EDA9F0E020819FA99095A6
:1049600092239083EEA9F0E020819FA9922B90835F
:10497000EE89F0E020819F89909592239083ED89C4
:10498000F0E020819F89922B90839E859230E8F100
:10499000EA8DF0E020819B8D909592239083E98DA4
:1049A000F0E020819B8D922B90839E85933068F15F
:1049B000EE8DF0E020819F8D909592239083ED8D78
:1049C000F0E020819F8D922B90839E859430E8F0BB
:1049D000EAA1F0E020819BA1909592239083E9A128
:1049E000F0E020819BA1922B90839E85953068F00A
:1049F000EEA1F0E020819FA1909592239083EDA1FC
:104A0000F0E020819FA1922B9083E8A5F0E0208127
:104A10009BA5922309F0016098899230E8F0ECA5FB
:104A2000F0E030812FA5232309F002609330B0F02D
:104A3000E8A9F0E030812BA9232319F0202F24606E
:104A400001C0202F943058F0ECA9F0E030819FA9EC
:104A5000932329F0286003C0202F01C0202F9F85B9
:104A6000891304C039892313ACCE05C009892017E6
:104A700009F4A8CE322FED89F0E020819F8990952E
:104A800092239083EE89F0E020819F899095922374
:104A900090839E85923008F441C0E98DF0E020813A
:104AA0009B8D909592239083EA8DF0E020819B8DE1
:104AB0009095922390839E85933080F1ED8DF0E068
:104AC00020819F8D909592239083EE8DF0E0208140
:104AD0009F8D9095922390839E859430F8F0E9A164
:104AE000F0E090812BA1209592239083EAA1F0E041
:104AF00090812BA12095922390839E85953070F014
:104B0000EDA1F0E090812FA1209592239083EEA15A
:104B1000F0E090812FA1209592239083E9A5F0E009
:104B200020819BA5909592239083EAA5F0E02081B7
:104B30009BA59095922390839889923080F1EDA562
:104B4000F0E020819FA5909592239083EEA5F0E060
:104B500020819FA590959223908398899330F8F0B7
:104B6000E9A9F0E020819BA9909592239083EAA97E
:104B7000F0E020819BA990959223908398899430AE
:104B800070F0EDA9F0E090812FA9209592239083F9
:104B9000EEA9F0E090812FA920959223908388239D
:104BA00009F443C0332309F442C02E852223C9F0FF
:104BB000E82FF0E080FF12C041E050E00BC0BF01E1
:104BC000042E02C0759567950A94E2F74F5F5F4F18
:104BD00060FF06C0942F421790F303C080E001C02D
:104BE000892F28892223C9F0E32FF0E030FF12C07B
:104BF00041E050E00BC0BF01042E02C075956795DF
:104C00000A94E2F74F5F5F4F60FF06C0942F421790
:104C100090F303C030E001C0392F20E2829FC00131
:104C20001124832B05C08FEF03C08FEF01C08FEFDE
:104C3000DF91CF911F910F9108951F93CF93DF9331
:104C4000EC01892BF9F0CE010E94D7238F3FD9F3D5
:104C5000282F2295269527709E858F71E82FF0E0EA
:104C6000299FE00DF11D11248A899B89E80FF91F06
:104C700010816A857B858C859D850E946B23812FA1
:104C800090E002C08FEF9FEFDF91CF911F910895C9
:104C90000F931F93CF938C01892B79F0C8010E9449
:104CA000D723C82F8F3FD1F3F801628573858485A0
:104CB00095850E946B238C2F01C08FEFCF911F91A0
:104CC0000F910895009719F0FC01718760878FEFAD
:104CD0009FEF089541155105D9F0809133059091CA
:104CE00034058230910530F001969093340580931D
:104CF000330506C081E090E090933405809333053E
:104D00008FE295E0FA019183808380E090E008953E
:104D10008FEF9FEF08955058BB27AA270E94A32624
:104D20000C940F270E94012738F00E94082720F0DA
:104D300039F49F3F19F426F40C94FE260EF4E09506
:104D4000E7FB0C94F826E92F0E94202758F3BA17A6
:104D5000620773078407950720F079F4A6F50C9491
:104D600042270EF4E0950B2EBA2FA02D0B01B901AE
:104D700090010C01CA01A0011124FF27591B99F0D1
:104D8000593F50F4503E68F11A16F040A22F232FDD
:104D9000342F4427585FF3CF469537952795A7952D
:104DA000F0405395C9F77EF41F16BA0B620B730BD4
:104DB000840BBAF09150A1F0FF0FBB1F661F771F45
:104DC000881FC2F70EC0BA0F621F731F841F48F4FA
:104DD000879577956795B795F7959E3F08F0B0CF83
:104DE0009395880F08F09927EE0F9795879508956A
:104DF00097F99F6780E870E060E008959FEF80EC8E
:104E0000089500240A941616170618060906089530
:104E100000240A9412161306140605060895092E96
:104E20000394000C11F4882352F0BB0F40F4BF2B05
:104E300011F460FF04C06F5F7F4F8F4F9F4F089545
:104E400057FD9058440F551F59F05F3F71F047953B
:104E5000880F97FB991F61F09F3F79F08795089520
:104E6000121613061406551FF2CF4695F1DF08C03F
:104E7000161617061806991FF1CF8695710561055C
:104E800008940895E894BB2766277727CB0197F904
:104E900008950E944E2708F48FEF0895990F000897
:104EA000550FAA0BE0E8FEEF16161706E807F907FC
:104EB000C0F012161306E407F50798F0621B730B97
:104EC000840B950B39F40A2661F0232B242B252B18
:104ED00021F408950A2609F4A140A6958FEF811DBB
:104EE000811D089597FB072E16F4009407D077FDD7
:104EF00009D00E949B2707FC05D03EF49095819530
:104F00009F4F0895709561957F4F08952A0D3B1D21
:104F10004C1D5D1D6E1D7F1D801F911F0895002477
:104F2000A7FD00942A0F301D401D501D601D701DEF
:104F3000801D901D0895AA1BBB1B51E107C0AA1F2D
:104F4000BB1FA617B70710F0A61BB70B881F991F2A
:104F50005A95A9F780959095BC01CD010895F894D4
:024F6000FFCF81
:104F620002019A010000EE07E30745636F2E4D65CB
:104F72006D6F72794D616E616765720000000000AD
:104F8200000000000000000000000000000000001F
:104F9200000000000000000000000000000000000F
:104FA20000000000000000000000312E302E302EE4
:104FB20030000000000000000000506565724600ED
:104FC20000000000000000000000000000000000DF
:104FD20000000000000000000000000000000000CF
:104FE20000000000000000000000000000000000BF
:104FF20000000000000000000000890502060F0604
:105002001F061C069B06A206AA065E0822093B0989
:105012005E09320ADA0A1D0B2B0B370B0000B206AF
:10502200660749087307B607DC07CC016402000073
:10503200060FFB0E45636F2E496E746572666163DF
:1050420065427573000000000000000000000000CF
:10505200000000000000000000000000000000004E
:10506200000000000000000000000000000000003E
:1050720000000000312E302E302E300000000000E3
:10508200000000005065657246000000000000004C
:10509200000000000000000000000000000000000E
:1050A20000000000000000000000000000000000FE
:1050B20000000000000000000000000000000000EE
:1050C20000000000A10B540B610BD10B6E0B790B8E
:1050D200800B880B090E000D8E0F190D3F0D570D19
:1050E200780D990DF80E9C0DB50E460C790F000047
:1050F2000000530C9F0DC90D670E280C350C430C94
:10510200420CD00F8510211192109810AE02460366
:1051120000008B17831745636F48443434373830A7
:105122004C4344436F6E74726F6C6C657231000055
:10513200000000000000000000000000000000006D
:10514200000000000000000000000000000000005D
:10515200000000000000312E302E302E3000000002
:10516200000000000000436F6D70616E794E616D4A
:1051720065000000000000000000000000000000C8
:10518200000000000000000000000000000000001D
:10519200000000000000000000000000000000000D
:1051A2000000000000003611B811C511DF11D21144
:1051B200B412BB12C31287037F0300000000000079
:1051C200002728102728202A2B102A2B202A2B40A0
:1051D2002A2B80272801272802272804272808C5E8
:1051E20014CA15E5150016CB12B613C313D013DB80
:1051F20013E613F113FC13071412141D14281433AD
:10520200143E146816BA14CB03AF0300000000A4C6
:1052120018A919D61AC419CF19DA19E519F019FB08
:10522200192C1A371A421A7B1A861AAC179718C108
:105232001AD3036B0400005B1D501D45636F2E43A0
:10524200616C63756C61746F724200000000000053
:10525200000000000000000000000000000000004C
:10526200000000000000000000000000000000003C
:105272000000000000000000000000312E302E303F
:105282002E300000000000000000005265616C45F5
:10529200617374204E6574776F726B730000000047
:1052A20000000000000000000000000000000000FC
:1052B20000000000000000000000000000000000EC
:1052C2000000000000000000000000FB1A741B81B7
:1052D2001B991B8E1B2B1C321C3A1CF21C241D3AE0
:1052E2001D421C4B1C87041F0500006A26622645CE
:1052F200636F4B657970616431000000000000004B
:10530200000000000000000000000000000000009B
:10531200000000000000000000000000000000008B
:10532200000000000000000000000000000000314A
:105332002E302E302E30000000000000000000430E
:105342006F6D70616E794E616D6500000000000046
:10535200000000000000000000000000000000004B
:10536200000000000000000000000000000000003B
:1053720000000000000000000000000000000051DA
:105382001ED31EE01EFA1EED1ECF1FD61FDE1F719A
:1053920005670500000000000000007A43040F03C7
:1053A200075D07292A2B10292A2B20292A2B40297D
:1053B2002A2B80292A2B802324250123242502231A
:1053C2002425042324250891219622B122CC2220CF
:1053D20023E61FD120DE20EB20792186211D2648DD
:1053E200260110AE202E543CE54550899603BD702F
:1053F200C6256501104828F6552E4540E78121EB68
:10540200D220DC360E01109322111622484742AEFA
:105412000682819447843D011000000000000000D4
:10542200000000A0010000010101100000000000C6
:105432000000000000A000000001010110000000B7
:105442000000000000000000004D656D31011000F9
:10545200000000000000000000B000000001010197
:105462001000000000000000000000000000000129
:1054720000DD06EB06F706011028BA4535E46E4F4B
:105482003B9E73FD385DB56ED201100F05F80CE23C
:10549200EE4930B1D9A7C557814C4E01108A2D84EF
:1054A2008DC91F4FD1893D4E0EA6D2DE0D01103F90
:1054B200A84B8E07D54333B612F1CF2C91947F01BE
:1054C2001000000000000000000000000000005575
:1054D20000011000000000000000000000000000B9
:1054E2000000AA011000000000000000000000A05F
:1054F2000000000101011000000000000000000097
:1055020000A00100000101011000000000000000E5
:10551200000000B0000000010201100000000000C5
:105522000000000000000000000100011000000067
:10553200000000000000000000000000AA43616CAF
:1055420063207631202D20556E6B0043616C632001
:105552007631202D20410043616C63207631202D6D
:10556200204200011000000000000000000000A026
:105572000000000101011000000000000000000016
:105582000000004D656D31011000000000000000B8
:10559200000000B000000001020110000000000045
:1055A2000000000000A00000000101011000000046
:1055B200000000000000000000000001004F5051F8
:0E55C2001E4B4C4D304748492E4652032000E8
:00000001FF
