:100000000C9434000C9451000C9451000C94510049
:100010000C9451000C9451000C9451000C9451001C
:100020000C9451000C9451000C9451000C9451000C
:100030000C9451000C9451000C9451000C945100FC
:100040000C9451000C9451000C9451000C945100EC
:100050000C9451000C9451000C9451000C945100DC
:100060000C9451000C94510011241FBECFEFD8E026
:10007000DEBFCDBF17E0A0E0B1E0ECE7F8E602C0DC
:1000800005900D92A43DB107D9F728E0A4EDB7E0A3
:1000900001C01D92A437B207E1F70E94A00C0C9496
:1000A0003C340C940000EF92FF920F931F93CF9378
:1000B000DF9300D000D0CDB7DEB71C821B821A823E
:1000C00019822091D7073091D807232BA1F0809176
:1000D000D7079091D807DC01ED91FC910190F08158
:1000E000E02D49ED57E06BE076E009957C01892B26
:1000F00009F0DFC015C0DC01ED91FC910190F081A9
:10010000E02D47ED57E061E476E009957C01892B0D
:10011000F1F28091D7079091D807892BC1F6C9C019
:100120008091D9079091DA07009709F4CFC04091E8
:10013000000150910101DC01ED91FC910284F385F5
:10014000E02D6DE176E009957C01892B09F0B1C0C5
:100150008091D9079091DA07DC01ED91FC91019033
:10016000F081E02DAE014F5F5F4F69EF75E00995BB
:100170007C01892BB9F489819A81009799F0DC017F
:10018000ED91FC910680F781E02D6DE176E0099517
:1001900089819A81DC01ED91FC910284F385E02D47
:1001A00061E0099589819A81DC01ED91FC910480DF
:1001B000F581E02D09958091D9079091DA07DC014E
:1001C000ED91FC910684F785E02D8E010D5F1F4FA8
:1001D0002FE236E040E050E06DE176E00995E11471
:1001E000F10409F066C08B819C81009709F461C01D
:1001F000DC01ED91FC910680F781E02D20E032E0FA
:1002000040E050E064E778E009958091D90790914B
:10021000DA074091350450913604DC01ED91FC91F0
:100220000284F385E02D65ED75E009957C01892B4D
:1002300009F03FC08091D9079091DA07DC01ED9178
:10024000FC910684F785E02D05ED17E027EE35E0FB
:1002500040E050E063EC75E009957C01892B31F4B6
:100260008091D5079091D607892BF1F48091D90719
:100270009091DA07DC01ED91FC910684F785E02D81
:1002800005ED17E027EE35E040E050E065ED75E064
:1002900009957C01892B59F48091D5079091D60757
:1002A000892B29F081E001C082E08093D4070E946D
:1002B00097018091D9079091DA07009739F0DC0116
:1002C000ED91FC910480F581E02D09958091D50791
:1002D0009091D607009739F0DC01ED91FC910480F4
:1002E000F581E02D09958B819C81009739F0DC0127
:1002F000ED91FC910480F581E02D09958091D7075F
:100300009091D807009739F0DC01ED91FC910480C1
:10031000F581E02D0995C7010F900F900F900F9078
:10032000DF91CF911F910F91FF90EF900895AF92C1
:10033000BF92CF92DF92EF92FF920F931F93CF93D2
:10034000DF93CDB7DEB72E970FB6F894DEBF0FBEA2
:10035000CDBF1E861D861C861B869E012F5F3F4FCC
:1003600059018AE0D9011D928A95E9F78091D90750
:100370009091DA0740910A0250910B02DC01ED9155
:10038000FC910284F385E02D6DE776E009950097F6
:1003900009F0D0C08091D9079091DA0740913503D8
:1003A00050913603DC01ED91FC910284F385E02D40
:1003B00069E576E00995009709F0BCC08091D907FE
:1003C0009091DA07DC01ED91FC910684F785E02D30
:1003D0008E01055F1F4F2BE636E040E050E069E5F7
:1003E00076E00995009709F0A5C08B859C8500975C
:1003F00019F420E090E068C32091D5073091D6072A
:10040000DC01ED91FC910680F781E02D232B11F4A6
:1004100043E001C044E064E009958091D9079091E0
:10042000DA07DC01ED91FC910684F785E02D8E0161
:10043000035F1F4F2FE836E040E050E06DE776E0C5
:100440000995009709F076C08D859E85009789F201
:10045000DC01ED91FC91028CF38DE02D6CE00995AF
:100460008D859E85DC01ED91FC91048CF58DE02D50
:1004700040E860E00995E091D407E33040F4F0E013
:10048000EE0FFF1FED5AF94F9081818102C090E07D
:1004900080E0E92EF82EF70141917F018D859E8540
:1004A000DC01ED91FC91048CF58DE02D442319F0D5
:1004B00061E00995F0CF40EC60E0099510E0E12C97
:1004C000F12C02E08B859C85DC01ED91FC9104848C
:1004D000F585E02D09956C01892BA1F3112361F1BC
:1004E0008091DB078A30E9F58D859E85DC01ED91F1
:1004F000FC91048CF58DE02D40EC60E009958D8534
:100500009E85DC01ED91FC91048CF58DE02D40E29F
:1005100061E00995115099F78D859E85DC01ED917B
:10052000FC91048CF58DE02D40EC60E00995109273
:10053000DB0702C0282FC8C2BFE4CB16D10409F0E4
:1005400045C08D859E85DC01ED91FC91048CF58D77
:10055000E02D41E361E0099511E0EE24E394F12CF4
:10056000B1CFEFE4CE16D104D9F0B0E5CB16D1046B
:1005700009F04CC08D859E85DC01ED91FC91048CC9
:10058000F58DE02D42E361E009952AE02E9DC00142
:100590002F9D900D11247C01B2E0EB0EF11C34C0B4
:1005A0008D859E85DC01ED91FC91048CF58DE02D0F
:1005B00041E361E009952AE02E9DC0012F9D900D39
:1005C00011247C01BFEFEB1AFB0A1EC0B0E5CB166D
:1005D000D104B9F58D859E85DC01ED91FC91048CEB
:1005E000F58DE02D42E361E0099511E092E0E92EFE
:1005F000F12C68CF2AE02E9DC0012F9D900D112473
:100600007C01B4E0EB0EF11C1F5F5CCFE1E5CE1680
:10061000D10409F020C28D859E85DC01ED91FC910D
:10062000048CF58DE02D43E361E009952AE02E9DD1
:10063000C0012F9D900D11247C01B3E0EB0EF11C45
:10064000E3CFB1E5CB16D10481F48D859E85DC0125
:10065000ED91FC91048CF58DE02D43E361E009956B
:1006600011E083E0E82EF12C2DCF10E0EEE1CE1664
:10067000D10409F427CFBBE4CB16D10491F48D85C6
:100680009E85DC01ED91FC91048CF58DE02D44E319
:1006900061E009951111AECF11E0E4E0EE2EF12CEE
:1006A00011CFECE4CE16D104E9F48D859E85DC01F2
:1006B000ED91FC91048CF58DE02D45E361E0099509
:1006C000111105C011E075E0E72EF12CFBCE2AE0F8
:1006D0002E9DC0012F9D900D11247C01B5E0EB0EE5
:1006E000F11C92CFEDE4CE16D104E9F48D859E8500
:1006F000DC01ED91FC91048CF58DE02D46E361E089
:100700000995111105C011E066E0E62EF12CDACE54
:100710002AE02E9DC0012F9D900D11247C01B6E092
:10072000EB0EF11C71CFE0E3CE16D10409F043C00B
:10073000112309F4C7CE0093DB07F092E307E092A0
:10074000E2078D859E85DC01ED91FC91048CF58D91
:10075000E02D40EC60E009958D859E85DC01ED91F2
:10076000FC91048CF58DE02D40E261E0099511507B
:1007700099F78D859E85DC01ED91FC91048CF58DBA
:10078000E02D40EC60E009958D859E85DC01ED91C2
:10079000FC91048CF58DE02D4DE261E009958D858D
:1007A0009E85DC01ED91FC91048CF58DE02D40ECF3
:1007B00060E0099587CEB7E4CB16D104E9F48D85C6
:1007C0009E85DC01ED91FC91048CF58DE02D47E3D5
:1007D00061E00995111105C011E057E0E52EF12CFB
:1007E00071CE2AE02E9DC0012F9D900D11247C0119
:1007F000B7E0EB0EF11C08CFE8E4CE16D104E9F423
:100800008D859E85DC01ED91FC91048CF58DE02DAC
:1008100048E361E00995111105C011E048E0E42EBC
:10082000F12C50CE2AE02E9DC0012F9D900D112459
:100830007C01B8E0EB0EF11CE7CEE9E4CE16D10462
:10084000E9F48D859E85DC01ED91FC91048CF58D9C
:10085000E02D49E361E00995111105C011E039E08F
:10086000E32EF12C2FCE2AE02E9DC0012F9D900D5E
:1008700011247C01B9E0EB0EF11CC6CEEEE2CE16DF
:10088000D10451F48D859E85DC01ED91FC91048CA1
:10089000F58DE02D43E438C0B6E4CB16D10451F415
:1008A0008D859E85DC01ED91FC91048CF58DE02D0C
:1008B0004AE22AC0B2E5CB16D104C9F48D859E85E3
:1008C000DC01ED91FC91048CF58DE02D40E361E0BD
:1008D0000995111104C011E0E12CF12CF3CD8AE04F
:1008E000F7018E9F70018F9FF00C11248DCEF3E0E5
:1008F000CF16D10459F48D859E85DC01ED91FC91D4
:10090000048CF58DE02D43E261E053CFB0E2CB16CD
:10091000D10409F0D7CD112309F4D4CDF092E10729
:10092000E092E0078D859E85DC01ED91FC91048CC1
:10093000F58DE02D40EC60E009958D859E85DC010C
:10094000ED91FC91048CF58DE02D40E261E009957C
:10095000115099F78D859E85DC01ED91FC91048CF9
:10096000F58DE02D40EC60E009958D859E85DC01DC
:10097000ED91FC91048CF58DE02D4DE361E009953E
:100980008D859E85DC01ED91FC91048CF58DE02D2B
:1009900040EC60E009958091DB078130E1F48091C3
:1009A000D5079091D6074091E0075091E1076091FB
:1009B000E2077091E307DC01ED91FC910680F7817D
:1009C000E02D09956093DC077093DD078093DE07C7
:1009D0009093DF0721C08230F9F48091D507909180
:1009E000D6074091E0075091E1076091E2077091CE
:1009F000E307DC01ED91FC910084F185E02D099580
:100A0000092E000CAA0BBB0B8093DC079093DD072B
:100A1000A093DE07B093DF074AE0B5018091DC07C1
:100A20009091DD070E94073465011C2D1A19F6010B
:100A300041916F01442359F08D859E85DC01ED9134
:100A4000FC91048CF58DE02D61E00995EECF8AE0F4
:100A50008093DB0737CDFEE1CF16D10409F00BCE32
:100A600081E08093DB07F092E307E092E2078D8557
:100A70009E85DC01ED91FC91048CF58DE02D40EC20
:100A800060E009958D859E85DC01ED91FC91048CDB
:100A9000F58DE02D40E261E00995115099F78D85C3
:100AA0009E85DC01ED91FC91048CF58DE02D40ECF0
:100AB00060E009958D859E85DC01ED91FC91048CAB
:100AC000F58DE02D4BE269CE822F2E960FB6F8946D
:100AD000DEBF0FBECDBFDF91CF911F910F91FF9071
:100AE000EF90DF90CF90BF90AF900895FB012081F1
:100AF000213009F06EC02181203109F06AC02281C5
:100B0000211167C0238121112AC02481211127C00E
:100B10002581211124C02681211121C02781211185
:100B20001EC0208521111BC02185211118C02285DE
:100B3000211115C02385211112C0248521110FC058
:100B4000258521110CC02685211109C02785211179
:100B500006C02089211103C021892A3A69F1238125
:100B6000211137C02481211134C02581211131C0C8
:100B7000268121112EC0278121112BC02085211112
:100B800028C02185211125C02285211122C023855D
:100B900021111FC0248521111CC02585211119C0D8
:100BA0002685211116C02785211113C020892535DE
:100BB00081F4218921110DC0FA0191838083DC0128
:100BC000ED91FC910280F381E02D099580E090E0A9
:100BD0000895FA01118210828FEF9FEF0895FC01B2
:100BE000892B79F082819381A481B581BC01CD01EB
:100BF0006F5F7F4F8F4F9F4F628373838483958393
:100C000008956FEF7FEFCB010895FC01892B79F0F8
:100C100082819381A481B581BC01CD0161507109AC
:100C200081099109628373838483958308956FEFAB
:100C30007FEFCB0108958FEF9FEF0895EF92FF9222
:100C40000F931F93CF93DF9300D0CDB7DEB7DC01B6
:100C5000F9011A821982892B19F48FEF9FEF61C075
:100C600041155105B1F180818130B9F78181803121
:100C7000A1F782818111F1CF83818111EECF84812F
:100C80008111EBCF85818111E8CF86818111E5CF7C
:100C900087818111E2CF80858111DFCF818581112C
:100CA000DCCF82858111D9CF83858111D6CF848510
:100CB0008111D3CF85858111D0CF86858111CDCF8C
:100CC00087858111CACF80898111C7CF81898A3AEE
:100CD00021F67F019A01CB011696ED91FC911797B1
:100CE000AE014F5F5F4FB9010995892B09F0B5CF70
:100CF00089819A81009709F4B0CFDC01ED91FC91D4
:100D00000190F081E02DA801B70109957C0189814E
:100D10009A81DC01ED91FC910480F581E02D09952B
:100D2000C7010F900F90DF91CF911F910F91FF900E
:100D3000EF900895009711F00A96089580E090E0F2
:100D40000895009719F0865B9F4F089580E090E02A
:100D50000895009719F0865A9F4F089580E090E01B
:100D60000895FB01009709F4ADC04115510509F440
:100D7000A9C02081213009F0A2C02181203109F0D1
:100D80009EC0228121119BC0DA01238121112BC039
:100D90002481211128C02581211125C026812111FE
:100DA00022C0278121111FC0208521111CC021854F
:100DB000211119C02285211116C02385211113C0CC
:100DC0002485203B81F4258521110DC02685211124
:100DD0000AC02785211107C02089213021F42189EB
:100DE000213009F460C02381211130C024812111F8
:100DF0002DC0258121112AC02681211127C02781DC
:100E0000211124C02085211121C0218521111EC05E
:100E1000228521111BC02385211118C02485203B68
:100E2000A9F42585211112C0268521110FC027851F
:100E300021110CC02089213049F42189223031F45C
:100E40009C012E5F3F4F2D933C932FC02381211196
:100E500036C02481211133C02581211130C0268163
:100E600021112DC0278121112AC02085211127C0E1
:100E70002185211124C02285211121C02385211122
:100E80001EC0248521111BC02585211118C026856F
:100E9000211115C02785211112C0208921110FC0F1
:100EA00021892A3A61F48D939C93DC01ED91FC91A8
:100EB0000280F381E02D099580E090E00895FA0129
:100EC000118210828FEF9FEF0895FC01892B79F03A
:100ED00084819581A681B781BC01CD016F5F7F4F71
:100EE0008F4F9F4F648375838683978308956FEF39
:100EF0007FEFCB0108952F923F924F925F926F92B6
:100F00007F928F929F92AF92BF92CF92DF92EF9299
:100F1000FF920F931F93FC01892BF9F0628F738F5F
:100F2000228B338B448B558BCB01990F990B190175
:100F30002A01282F372F492F592F692F792F892FD1
:100F400051016201E12CF12C00E010E00E94F2332B
:100F5000268F378F80E090E002C08FEF9FEF1F91C8
:100F60000F91FF90EF90DF90CF90BF90AF909F9048
:100F70008F907F906F905F904F903F902F9008954B
:100F80000F931F93DC01FB01892BB1F13097A1F185
:100F90005A964D915C915B97052E000C660B770B72
:100FA0004083518362837383148215821682178271
:100FB00052964D915D916D917C91559740875187E7
:100FC0006287738756960D911D912D913C9159978B
:100FD000401B510B620B730B4487558766877787DD
:100FE0001E968D919D910D90BC91A02D808B918B23
:100FF000A28BB38B81E001C080E01F910F91089517
:1010000021E0892B09F020E0822F8195089521E0CD
:1010100030E0892B11F020E030E088279927821BEF
:10102000930B08950F931F934115510509F469C05F
:101030000091E8071091E9072091EA073091EB074A
:10104000011511052105310509F047C001E010E047
:1010500020E030E00093E8071093E9072093EA07C7
:101060003093EB079093EF078093EE0780EC91E0CD
:101070009093E5078093E4078CEA91E09093E7076B
:101080008093E6071092F1071092F0071092F20792
:101090001092F3071092F4071092F5071092F607DA
:1010A0001092F7071092F8071092F9071092FA07BA
:1010B0001092FB071092FC071092FD071092FF0799
:1010C0001092FE0710920108109200081092030877
:1010D00010920208109204080CC00F5F1F4F2F4F90
:1010E0003F4F0093E8071093E9072093EA073093F6
:1010F000EB0784EE97E0FA019183808380E090E033
:1011000002C08FEF9FEF1F910F910895FC01892B73
:1011100041F0138E128E128A138A148A158A178E42
:10112000168E0895CF92DF92EF92FF920097B9F05A
:10113000FC01C480D580E680F780F1E0CF1AD108A9
:10114000E108F108FC01C482D582E682F782C1146D
:10115000D104E104F10439F40E94860804C0CC24CF
:10116000CA94DC2C7601C701B601FF90EF90DF90A6
:10117000CF900895CF93DF93DC01FB01EA01892B27
:1011800009F4B7C0209709F4B4C08081813009F018
:10119000AEC09B2F990F990B9D01492F592F692F95
:1011A000792F892FAEEF0E94FB33C90121812031B5
:1011B00009F09DC0228121119AC0DE0123812111F5
:1011C00030C0248121112DC0258121112AC0268102
:1011D000211127C02781211124C02085211121C080
:1011E000218521111EC0228521111BC023852111BB
:1011F00018C02485203BA9F42585211112C026851D
:1012000021110FC0278521110CC02089213049F4FC
:101210002189223031F49C012E5F3F4F398328838E
:101220005CC0238121112AC02481211127C025817E
:10123000211124C02681211121C0278121111EC026
:10124000208521111BC02185211118C02285211163
:1012500015C02385211112C02485203B79F42585F2
:1012600021110CC02685211109C02785211106C036
:101270002089213019F42189213069F1238121113C
:1012800036C02481211133C02581211130C026812F
:1012900021112DC0278121112AC02085211127C0AD
:1012A0002185211124C02285211121C023852111EE
:1012B0001EC0248521111BC02585211118C026853B
:1012C000211115C02785211112C0208921110FC0BD
:1012D00021892A3A61F48D939C93DC01ED91FC9174
:1012E0000280F381E02D099580E090E004C019822E
:1012F00018828FEF9FEFDF91CF910895AC01892B7A
:10130000E1F0952F990F990B9A01492F592F692FC9
:10131000792F892FAEEF0E94FB33F90184819581EB
:10132000A681B781BC01CD016F5F7F4F8F4F9F4F6B
:10133000648375838683978308956FEF7FEFCB0176
:101340000895CF92DF92EF92FF92AC01892B21F1A9
:10135000952F990F990B9A01492F592F692F792FA2
:10136000892FAEEF0E94FB33C901F901C480D580FB
:10137000E680F780F1E0CF1AD108E108F108F90121
:10138000C482D582E682F782C114D104E104F1045B
:1013900039F40E94860804C0CC24CA94DC2C76015F
:1013A000C701B601FF90EF90DF90CF9008954F9264
:1013B0005F926F927F928F929F92AF92BF92CF92E5
:1013C000DF92EF92FF920F931F93CF93DF93392F0A
:1013D0006A017B01282F990F990B492F592F692FEB
:1013E000792F892FAEEF0E94FB33D901B701A601F7
:1013F000437055276627772741155105610571050B
:1014000069F084E0882E912CA12CB12C24013501A7
:10141000441A550A660A770AB301A2014C0D5D1DF4
:101420006E1D7F1D1E96CD90DD90ED90FC90519726
:101430008FEFC81AD80AE80AF80A1E96CD92DD92F4
:10144000ED92FC9251971C96ED91FC911D97C12C49
:10145000D12C760180E090E0309709F440C0808084
:101460009180A280B3803481258184169506A606DA
:10147000B70688F1481559056A057B05F1F4009710
:1014800021F0EC013C832D8306C01C963C931C97F5
:101490001D962C931D9756960D911D912D913C9163
:1014A0005997400F511F621F731F56964D935D93BE
:1014B0006D937C93599734969EC0C114D104E10476
:1014C000F10429F08C149D04AE04BF0420F47501CE
:1014D00064018C01EF01CF01E32FF22FBDCFC114C6
:1014E000D104E104F104C1F1C41AD50AE60AF70AED
:1014F00056968D909D90AD90BC905997E6E0CE1693
:10150000D104E104F10478F48C819D810115110569
:1015100021F0F8019583848304C01D969C938E93DB
:101520001C97FE0110C0FE01EC0DFD1D4083518390
:101530006283738384E0C81AD108E108F108C88285
:10154000D982EA82FB824191519161917191480D5A
:10155000591D6A1D7B1D46C05C968D919C915D97BF
:10156000892B41F45A968D919C915B975D969C9343
:101570008E935C975E960D911C915F975C96ED91B2
:10158000FC915D97E017F107A0F50E1B1F0B012ED4
:10159000000C220B330B041715072607370748F1F9
:1015A0006A017B01C4E0CC0ED11CE11CF11C0C15BE
:1015B0001D052E053F05E8F0CA0104968E0F9F1FFA
:1015C0005D969C938E935C97419351936193719335
:1015D00056960D911D912D913C915997400F511F99
:1015E000621F731F56964D935D936D937C9359972D
:1015F00002C0E0E0F0E0CF01DF91CF911F910F91A9
:10160000FF90EF90DF90CF90BF90AF909F908F9022
:101610007F906F905F904F9008958F929F92AF92BE
:10162000BF92CF92DF92EF92FF920F931F93CF93CF
:10163000DF93392F8B01282F990F990B492F592FA1
:10164000692F792F892FAEEF0E94FB33F901011525
:10165000110509F4AFC086859785A089B1890197E6
:10166000A109B10986879787A08BB18BD8017E919C
:101670006E915E914E91C688D788E08CF18CC41A29
:10168000D50AE60AF70AC68AD78AE08EF18E159641
:101690001C921E92149784859585009751F4400FF3
:1016A000511F848D958D84179507A1F5B58FA48F53
:1016B00081C0EC0120E030E0CA17DB0740F4EC8089
:1016C000FD809E01E114F10441F1E701F5CF15968B
:1016D000DC93CE931497040F151FC017D107B9F4EC
:1016E000C880D980EA80FB804C0D5D1D6E1D7F1D7A
:1016F0004C5F5F4F6F4F7F4F4D935D936D937C9326
:1017000013974C815D8115965C934E931497211528
:10171000310519F4B587A4874DC0E901BD83AC83B9
:10172000A9014C5F5F4F88809980AA80BB80BA0175
:10173000680D791DA617B707C9F4CD90DD90ED901F
:10174000FC901397C80CD91CEA1CFB1CD4E0CD0EEE
:10175000D11CE11CF11CE901C882D982EA82FB821A
:1017600014966D917C9115977D836C83A0E0B0E019
:10177000EC012C813D812115310531F0AC014C5F2C
:101780005F4FDC01C901F4CF88819981840F951FD7
:10179000248D358D2817390769F4109719F41586AB
:1017A000148604C015961C921E9214974450510939
:1017B000558F448FDF91CF911F910F91FF90EF9044
:1017C000DF90CF90BF90AF909F908F9008954F92F1
:1017D0005F926F927F928F929F92AF92BF92CF92C1
:1017E000DF92EF92FF920F931F93CF93DF93FB0152
:1017F00034974080518062807380009719F4C12C27
:10180000D12C2AC049015A017B01EC01E881F98100
:101810000680F781E02DBA01A90109956C01892B99
:1018200071F3E881F9810484F585E02D48145904A9
:101830006A047B0418F49301820102C095018401BB
:10184000A701B601CE010995E881F9810084F185EF
:10185000E02DB701CE010995C601DF91CF911F910F
:101860000F91FF90EF90DF90CF90BF90AF909F903F
:101870008F907F906F905F904F9008950F931F937C
:10188000CF93DF93D62FC72F892B91F0FA01A62F84
:10189000B72F40E050E0BA014017510762077307C5
:1018A00039F081918D934F5F5F4F6F4F7F4FF4CF32
:1018B0008D2F9C2FDF91CF911F910F9108950F9342
:1018C0001F93892B71F0FB0180E090E0DC01801711
:1018D0009107A207B30729F041930196A11DB11DFD
:1018E000F6CFCB011F910F910895EF92FF920F93C6
:1018F0001F93892BD9F0FB01DA0140E050E0BA01D7
:101900008FEF9FEF4017510762077307A1F0E19037
:10191000FD90EF1458F0FE1460F0EF1002C080E06C
:1019200090E04F5F5F4F6F4F7F4FECCF8FEF9FEF98
:1019300002C081E090E01F910F91FF90EF90089519
:101940000F931F93CF93DF9300D0CDB7DEB71A82EA
:101950001982AE014F5F5F4F0E943C1789819A81C7
:101960000E9453008C0189819A810E94C417C8018A
:101970000F900F90DF91CF911F910F910895FB0170
:10198000009709F440C14115510509F43CC120817B
:10199000213009F035C12181203109F031C1228186
:1019A00021112EC1DA01238121112BC024812111A3
:1019B00028C02581211125C02681211122C027811F
:1019C00021111FC0208521111CC02185211119C0A2
:1019D0002285211116C02385211113C024852111D0
:1019E00010C0258521110DC0268521110AC027852B
:1019F000211107C02089213021F42189222309F4F3
:101A0000F3C0238121112EC0248121112BC02581F7
:101A1000211128C02681211125C02781211122C032
:101A2000208521111FC0218521111CC02285211173
:101A300019C02385211116C02485211113C02585C5
:101A4000211110C0268521110DC0278521110AC042
:101A50002089213039F421892F3F21F49C012E5F08
:101A60003F4F30C02381211130C0248121112DC06E
:101A7000258121112AC02681211127C0278121110A
:101A800024C02085211121C0218521111EC022855D
:101A900021111BC02385211118C02485211115C0D7
:101AA0002585211112C0268521110FC027852111FE
:101AB0000CC02089213049F42189203131F49C0166
:101AC0002C5F3F4F2D933C9391C0238121112EC059
:101AD000248121112BC02581211128C026812111AB
:101AE00025C02781211122C0208521111FC02185F9
:101AF00021111CC02285211119C02385211116C076
:101B00002485203A99F42585211110C026852111BC
:101B10000DC0278521110AC02089213039F421897F
:101B2000213021F49C012A5F3F4FCCCF238121112A
:101B30002EC0248121112BC02581211128C026818E
:101B4000211125C02781211122C0208521111FC00C
:101B5000218521111CC02285211119C02385211145
:101B600016C02485203A99F42585213081F42685F4
:101B700021110DC0278521110AC02089213039F497
:101B80002189213021F49C01285F3F4F9BCF238185
:101B9000211136C02481211133C02581211130C08B
:101BA000268121112DC0278121112AC020852111D4
:101BB00027C02185211124C02285211121C0238520
:101BC00021111EC0248521111BC02585211118C09B
:101BD0002685211115C02785211112C020892111C8
:101BE0000FC021892A3A61F48D939C93DC01ED9119
:101BF000FC910280F381E02D099580E090E008954A
:101C0000FA01118210828FEF9FEF0895FC01892B5A
:101C100079F082859385A485B585BC01CD016F5F80
:101C20007F4F8F4F9F4F6287738784879587089573
:101C30006FEF7FEFCB010895009719F0FC01738BD4
:101C4000628B0895009721F0FC01828993890895A1
:101C500080E090E00895CF93DF93DC01FB01EA017F
:101C6000892B09F44BC1209709F448C18081813048
:101C700009F042C19B2F990F990B9D01492F592FB4
:101C8000692F792F892FAEEF0E94FB33C901218183
:101C9000203109F031C1228121112EC1DE012381C1
:101CA00021112BC02481211128C02581211125C09B
:101CB0002681211122C0278121111FC020852111D9
:101CC0001CC02185211119C02285211116C0238530
:101CD000211113C02485211110C0258521110DC0AB
:101CE000268521110AC02785211107C020892130AE
:101CF00021F42189222309F4F3C0238121112EC06C
:101D0000248121112BC02581211128C02681211178
:101D100025C02781211122C0208521111FC02185C6
:101D200021111CC02285211119C02385211116C043
:101D30002485211113C02585211110C0268521116C
:101D40000DC0278521110AC02089213039F421894D
:101D50002F3F21F49C012E5F3F4F30C02381211182
:101D600030C0248121112DC0258121112AC0268156
:101D7000211127C02781211124C02085211121C0D4
:101D8000218521111EC0228521111BC0238521110F
:101D900018C02485211115C02585211112C0268562
:101DA00021110FC0278521110CC02089213049F451
:101DB0002189203131F49C012C5F3F4F2D933C93BE
:101DC00091C0238121112EC0248121112BC0258196
:101DD000211128C02681211125C02781211122C06F
:101DE000208521111FC0218521111CC022852111B0
:101DF00019C02385211116C02485203A99F4258520
:101E0000211110C0268521110DC0278521110AC07E
:101E10002089213039F42189213021F49C012A5F65
:101E20003F4FCCCF238121112EC0248121112BC003
:101E30002581211128C02681211125C0278121114A
:101E400022C0208521111FC0218521111CC022859F
:101E5000211119C02385211116C02485203A99F437
:101E60002585213081F4268521110DC0278521117A
:101E70000AC02089213039F42189213021F49C01C4
:101E8000285F3F4F9BCF2381211136C02481211130
:101E900033C02581211130C0268121112DC0278119
:101EA00021112AC02085211127C02185211124C09C
:101EB0002285211121C0238521111EC024852111D5
:101EC0001BC02585211118C02685211115C0278525
:101ED000211112C0208921110FC021892A3A61F4F1
:101EE0008D939C93DC01ED91FC910280F381E02DB8
:101EF000099580E090E004C0198218828FEF9FEF6F
:101F0000DF91CF910895AC01892BE1F0952F990FC6
:101F1000990B9A01492F592F692F792F892FAEEFED
:101F20000E94FB33F90182859385A485B585BC01A8
:101F3000CD016F5F7F4F8F4F9F4F6287738784877D
:101F4000958708956FEF7FEFCB010895CF92DF92D1
:101F5000EF92FF920F931F93CF93DF93CDB7DEB72E
:101F6000C250D1400FB6F894DEBF0FBECDBFFC010A
:101F70009F2F990F990B9F01492F592F692F792F67
:101F8000892FAEEF0E94FB337901CF5FDE4F1982BC
:101F90001882C150D1409E012F5F3F4F690180E000
:101FA00091E0D9019C011D9221503040E1F7EF2BC7
:101FB00009F45CC0D70154968D919C915597892B5B
:101FC00009F050C05A968D919C915B97DC01ED9180
:101FD000FC910190F081E02DAE014F5F5E4F6BEE02
:101FE00076E00995892BF1F5CF5FDE4F88819981E5
:101FF000C150D1400097B1F1DC01ED91FC91068018
:10200000F781E02D41E051E060E070E00995F701D3
:10201000958B848BCF5FDE4FA881B981C150D140B1
:10202000ED91FC9111970484F585E02D00E011E01D
:1020300020E030E0A601BC01CD010995D7015496FE
:10204000ED91FC915597F3951082CF5FDE4F88811B
:102050009981C150D140DC01ED91FC910480F58162
:10206000E02D0995F7018489958902C080E090E010
:10207000CE5FDE4F0FB6F894DEBF0FBECDBFDF914F
:10208000CF911F910F91FF90EF90DF90CF90089527
:10209000FC019F2F990F990B9F01492F592F692FF1
:1020A000792F892FAEEF0E94FB33D901EF2B29F056
:1020B00056968D919C915797089580E090E00895F1
:1020C000CF93DF93DC01FB01EA01892B09F44BC1BB
:1020D000209709F448C18081813009F042C19B2FCB
:1020E000990F990B9D01492F592F692F792F892F0E
:1020F000ACEF0E94FB33C9012181203109F031C1CD
:10210000228121112EC1DE01238121112BC02481C6
:10211000211128C02581211125C02681211122C02D
:10212000278121111FC0208521111CC0218521116B
:1021300019C02285211116C02385211113C02485C1
:10214000211110C0258521110DC0268521110AC03D
:102150002785211107C02089213021F421892223DC
:1021600009F4F3C0238121112EC0248121112BC039
:102170002581211128C02681211125C02781211107
:1021800022C0208521111FC0218521111CC022855C
:10219000211119C02385211116C02485211113C0D6
:1021A0002585211110C0268521110DC027852111FB
:1021B0000AC02089213039F421892F3F21F49C0164
:1021C0002E5F3F4F30C02381211130C02481211167
:1021D0002DC0258121112AC02681211127C02781E8
:1021E000211124C02085211121C0218521111EC06B
:1021F000228521111BC02385211118C0248521119E
:1022000015C02585211112C0268521110FC02785F3
:1022100021110CC02089213049F42189203131F469
:102220009C012C5F3F4F2D933C9391C02381211142
:102230002EC0248121112BC02581211128C0268187
:10224000211125C02781211122C0208521111FC005
:10225000218521111CC02285211119C0238521113E
:1022600016C02485203A99F42585211110C02685B1
:1022700021110DC0278521110AC02089213039F490
:102280002189213021F49C012A5F3F4FCCCF23814B
:1022900021112EC0248121112BC02581211128C09C
:1022A0002681211125C02781211122C020852111DD
:1022B0001FC0218521111CC02285211119C0238531
:1022C000211116C02485203A99F42585213081F406
:1022D000268521110DC0278521110AC020892130B2
:1022E00039F42189213021F49C01285F3F4F9BCF95
:1022F0002381211136C02481211133C02581211170
:1023000030C0268121112DC0278121112AC02085AE
:10231000211127C02185211124C02285211121C02E
:10232000238521111EC0248521111BC02585211163
:1023300018C02685211115C02785211112C02089BA
:1023400021110FC021892A3A61F48D939C93DC01FD
:10235000ED91FC910280F381E02D099580E090E001
:1023600004C0198218828FEF9FEFDF91CF910895FB
:10237000AC01892BE1F0952F990F990B9A01492F08
:10238000592F692F792F892FACEF0E94FB33F90168
:1023900082859385A485B585BC01CD016F5F7F4F94
:1023A0008F4F9F4F628773878487958708956FEF5C
:1023B0007FEFCB010895CF92DF92EF92FF920F93C0
:1023C0001F93CF93DF9300D0CDB7DEB7FC019F2FD3
:1023D000990F990B9F01492F592F692F792F892F19
:1023E000ACEF0E94FB3379011A821982EF2B09F4BA
:1023F0007FC0D90158968D919C915997892B09F0EE
:1024000073C01E968D919C911F97181619060CF09B
:102410006BC050968D919C915197892B09F464C0A3
:102420005A968D919C915B97DC01ED91FC91019006
:10243000F081E02DAE014F5F5F4F6BEE76E00995C6
:10244000892B09F051C089819A81009709F44CC009
:10245000D7015096ED91FC91519740815181FA013D
:10246000C12CD12C2081222339F02C3519F46F0195
:10247000C41AD50A3196F6CFA6014F5F5F4F052EDD
:10248000000C660B770BDC01ED91FC910680F78167
:10249000E02D0995F701918F808FA981BA8186017E
:1024A0000D2C000C220B330B40895189FA0140811D
:1024B0005181ED91FC9111970484F585E02DBC01CB
:1024C000CD010995D70158968D919C915997FC01A2
:1024D000EC0DFD1D108289819A81DC01ED91FC914A
:1024E0000480F581E02D0995F701808D918D02C062
:1024F00080E090E00F900F90DF91CF911F910F91AE
:10250000FF90EF90DF90CF900895FC019F2F990FDF
:10251000990B9F01492F592F692F792F892FACEFE4
:102520000E94FB33D901EF2B29F01E968D919C91CF
:102530001F97089580E090E00895FC019F2F990F68
:10254000990B9F01492F592F692F792F892FACEFB4
:102550000E94FB33D901EF2B29F050968D919C916D
:102560005197089580E090E00895CF93DF93EC01B8
:10257000FB019D2F990F990B9E01492F592F692F10
:10258000792F892FACEF0E94FB33D901CD2BA1F01D
:102590001E968D919C911F97E817F9076CF4509641
:1025A0008D919C915197009739F0EE0FFF1FE80F26
:1025B000F91F8081918102C080E090E0DF91CF918E
:1025C0000895CF93DF93DC01FB01EA01892B09F425
:1025D0004BC1209709F448C18081813009F042C184
:1025E0009B2F990F990B9D01492F592F692F792FF7
:1025F000892FAAEF0E94FB33C9012181203109F004
:1026000031C1228121112EC1DE01238121112BC074
:102610002481211128C02581211125C02681211165
:1026200022C0278121111FC0208521111CC02185B6
:10263000211119C02285211116C02385211113C033
:102640002485211110C0258521110DC02685211159
:102650000AC02785211107C02089213021F4218952
:10266000222309F4F3C0238121112EC024812111DA
:102670002BC02581211128C02681211125C0278149
:10268000211122C0208521111FC0218521111CC0CC
:102690002285211119C02385211116C024852111FD
:1026A00013C02585211110C0268521110DC0278555
:1026B00021110AC02089213039F421892F3F21F4CA
:1026C0009C012E5F3F4F30C02381211130C02481F7
:1026D00021112DC0258121112AC02681211127C059
:1026E0002781211124C02085211121C0218521119C
:1026F0001EC0228521111BC02385211118C02485ED
:10270000211115C02585211112C0268521110FC068
:10271000278521110CC02089213049F421892031DD
:1027200031F49C012C5F3F4F2D933C9391C023814A
:1027300021112EC0248121112BC02581211128C0F7
:102740002681211125C02781211122C02085211138
:102750001FC0218521111CC02285211119C023858C
:10276000211116C02485203A99F42585211110C025
:10277000268521110DC0278521110AC0208921300D
:1027800039F42189213021F49C012A5F3F4FCCCFBD
:10279000238121112EC0248121112BC025812111DB
:1027A00028C02681211125C02781211122C0208522
:1027B00021111FC0218521111CC02285211119C0A2
:1027C0002385211116C02485203A99F425852130CE
:1027D00081F4268521110DC0278521110AC0208989
:1027E000213039F42189213021F49C01285F3F4FA9
:1027F0009BCF2381211136C02481211133C0258133
:10280000211130C0268121112DC0278121112AC01C
:102810002085211127C02185211124C02285211165
:1028200021C0238521111EC0248521111BC02585AF
:10283000211118C02685211115C02785211112C02C
:10284000208921110FC021892A3A61F48D939C932C
:10285000DC01ED91FC910280F381E02D099580E08F
:1028600090E004C0198218828FEF9FEFDF91CF9123
:102870000895AC01892BE1F0952F990F990B9A01DE
:10288000492F592F692F792F892FAAEF0E94FB33E7
:10289000F90182859385A485B585BC01CD016F5F63
:1028A0007F4F8F4F9F4F62877387848795870895E7
:1028B0006FEF7FEFCB010895FC019F2F990F990BCC
:1028C0009F01492F592F692F792F892FAAEF0E9435
:1028D000FB33D901EF2B59F05C968D919C915D975C
:1028E000DC01ED91FC910680F781E02D09948FEFDA
:1028F0009FEF0895CF92DF92EF92FF92CF93DF93F5
:10290000FC01EB0169017A019F2F990F990B9F013F
:10291000492F592F692F792F892FAAEF0E94FB3356
:10292000D901EF2BA1F05C968D919C915D97DC0114
:10293000ED91FC910084F185E02DA7019601BE0187
:10294000DF91CF91FF90EF90DF90CF9009948FEFC0
:102950009FEFDF91CF91FF90EF90DF90CF900895A0
:102960000F931F93CF93DF93FC01EB018A019F2FFD
:10297000990F990B9F01492F592F692F792F892F73
:10298000AAEF0E94FB33D901EF2B89F05C968D9161
:102990009C915D97DC01ED91FC910284F385E02D23
:1029A000A801BE01DF91CF911F910F9109948FEF84
:1029B0009FEFDF91CF911F910F910895CF93DF93F8
:1029C000FC01EB019F2F990F990B9F01492F592F64
:1029D000692F792F892FAAEF0E94FB33D901EF2BA2
:1029E00071F05C968D919C915D97DC01ED91FC916D
:1029F0000484F585E02DBE01DF91CF9109948FEF1E
:102A00009FEFDF91CF910895CF92DF92EF92FF92E7
:102A10000F931F93CF93DF93FC01EB017A016901C0
:102A20009F2F990F990B9F01492F592F692F792FAC
:102A3000892FAAEF0E94FB33D901EF2B79F0960181
:102A4000A701BE015C968D919C915D97DC01ED9193
:102A5000FC910684F785E02D099502C08FEF9FEF6A
:102A6000DF91CF911F910F91FF90EF90DF90CF906A
:102A70000895CF93DF93DC01FB01EA01892B09F470
:102A80004BC1209709F448C18081813009F042C1CF
:102A90009B2F990F990B9D01492F592F692F792F42
:102AA000892FA8EF0E94FB33C9012181203109F051
:102AB00031C1228121112EC1DE01238121112BC0C0
:102AC0002481211128C02581211125C026812111B1
:102AD00022C0278121111FC0208521111CC0218502
:102AE000211119C02285211116C02385211113C07F
:102AF0002485211110C0258521110DC026852111A5
:102B00000AC02785211107C02089213021F421899D
:102B1000222309F4F3C0238121112EC02481211125
:102B20002BC02581211128C02681211125C0278194
:102B3000211122C0208521111FC0218521111CC017
:102B40002285211119C02385211116C02485211148
:102B500013C02585211110C0268521110DC02785A0
:102B600021110AC02089213039F421892F3F21F415
:102B70009C012E5F3F4F30C02381211130C0248142
:102B800021112DC0258121112AC02681211127C0A4
:102B90002781211124C02085211121C021852111E7
:102BA0001EC0228521111BC02385211118C0248538
:102BB000211115C02585211112C0268521110FC0B4
:102BC000278521110CC02089213049F42189203129
:102BD00031F49C012C5F3F4F2D933C9391C0238196
:102BE00021112EC0248121112BC02581211128C043
:102BF0002681211125C02781211122C02085211184
:102C00001FC0218521111CC02285211119C02385D7
:102C1000211116C02485203A99F42585211110C070
:102C2000268521110DC0278521110AC02089213058
:102C300039F42189213021F49C012A5F3F4FCCCF08
:102C4000238121112EC0248121112BC02581211126
:102C500028C02681211125C02781211122C020856D
:102C600021111FC0218521111CC02285211119C0ED
:102C70002385211116C02485203A99F42585213019
:102C800081F4268521110DC0278521110AC02089D4
:102C9000213039F42189213021F49C01285F3F4FF4
:102CA0009BCF2381211136C02481211133C025817E
:102CB000211130C0268121112DC0278121112AC068
:102CC0002085211127C02185211124C022852111B1
:102CD00021C0238521111EC0248521111BC02585FB
:102CE000211118C02685211115C02785211112C078
:102CF000208921110FC021892A3A61F48D939C9378
:102D0000DC01ED91FC910280F381E02D099580E0DA
:102D100090E004C0198218828FEF9FEFDF91CF916E
:102D20000895AC01892BE1F0952F990F990B9A0129
:102D3000492F592F692F792F892FA8EF0E94FB3334
:102D4000F90182859385A485B585BC01CD016F5FAE
:102D50007F4F8F4F9F4F6287738784879587089532
:102D60006FEF7FEFCB0108950F931F93CF93DF9306
:102D7000FC018B019F2F990F990B9F01492F592F10
:102D8000692F792F892FA8EF0E94FB33E901EF2BE0
:102D900039F10115110521F18E8D9F8D0097A1F458
:102DA0008C8D9D8DDC01ED91FC910190F081E02DE9
:102DB000AE01425E5F4F67EC76E00995892B81F4A6
:102DC0008E8D9F8D009761F0DC01ED91FC91068066
:102DD000F781E02DB801DF91CF911F910F910994F8
:102DE0008FEF9FEFDF91CF911F910F910895FC011D
:102DF0009F2F990F990B9F01492F592F692F792FD9
:102E0000892FA8EF0E94FB33D901EF2B69F05E9662
:102E10008D919C915F97009739F0DC01ED91FC91C9
:102E20000084F185E02D099480E090E00895CF932F
:102E3000FC01C62F9F2F990F990B9F01492F592FE6
:102E4000692F792F892FA8EF0E94FB33D901EF2B2F
:102E500079F05E968D919C915F97009749F0DC0127
:102E6000ED91FC910284F385E02D6C2FCF910994B4
:102E70008FEF9FEFCF910895CF92DF92EF92FF9265
:102E80000F931F93CF93DF936C017B01EA01809135
:102E90000F0890911008A0911108B0911208892B89
:102EA0008A2B8B2B09F061C0209709F45EC081E06A
:102EB00090E0A0E0B0E080930F0890931008A093FA
:102EC0001108B093120880E092E090930608809376
:102ED000050886EF91E0909308088093070888EE34
:102EE00091E090930A088093090888ED91E090930F
:102EF0000C0880930B088CEC91E090930E08809363
:102F00000D088091EB049091EC04DC01ED91FC91B3
:102F10000680F781E02D01E218E029ED36E040E07F
:102F200050E060E070E0099540912108509122083E
:102F3000009719F041155105F1F08091EB04909143
:102F4000EC04DC01ED91FC910084F185E02D60E062
:102F500070E00995D0921408C0921308F0921608F8
:102F6000E092150880E090E002C08FEF9FEF25E02F
:102F700038E039832883DF91CF911F910F91FF9023
:102F8000EF90DF90CF9008950F931F93CF93DF932F
:102F900000D0CDB7DEB71A821982009709F46CC051
:102FA0008C01DC015A968D919C915B97DC01ED912F
:102FB000FC910190F081E02DAE014F5F5F4F6BEE11
:102FC00076E00995892BC1F589819A810097A1F155
:102FD000F801668977896115710539F0DC01ED9199
:102FE000FC910084F185E02D0995F80164897589CB
:102FF0006115710549F089819A81DC01ED91FC919F
:103000000084F185E02D0995F801608D718D6115C1
:10301000710549F089819A81DC01ED91FC91008470
:10302000F185E02D099589819A81DC01ED91FC9172
:103030000480F581E02D0995F801828D938DDC01E6
:10304000ED91FC910480F581E02D0995F801848DC6
:10305000958DDC01ED91FC910480F581E02D0995C1
:10306000F801868D978D009739F0DC01ED91FC9188
:103070000480F581E02D09950F900F90DF91CF919D
:103080001F910F910895CF92DF92EF92FF920097D8
:10309000B9F0FC01C284D384E484F584F1E0CF1A52
:1030A000D108E108F108FC01C286D386E486F586E2
:1030B000C114D104E104F10439F40E94C41704C01E
:1030C000CC24CA94DC2C7601C701B601FF90EF90A6
:1030D000DF90CF900895CF92DF92EF92FF92AC01F4
:1030E000892B21F1952F990F990B9A01492F592F6F
:1030F000692F792F892FAEEF0E94FB33C901F901A7
:10310000C284D384E484F584F1E0CF1AD108E108C5
:10311000F108F901C286D386E486F586C114D1048C
:10312000E104F10439F40E94C41704C0CC24CA9409
:10313000DC2C7601C701B601FF90EF90DF90CF90B5
:103140000895CF92DF92EF92FF92AC01892B21F18B
:10315000952F990F990B9A01492F592F692F792F84
:10316000892FACEF0E94FB33C901F901C284D384DB
:10317000E484F584F1E0CF1AD108E108F108F901FF
:10318000C286D386E486F586C114D104E104F10435
:1031900039F40E94C41704C0CC24CA94DC2C7601F4
:1031A000C701B601FF90EF90DF90CF900895CF92C6
:1031B000DF92EF92FF92AC01892B21F1952F990FAD
:1031C000990B9A01492F592F692F792F892FAAEF2F
:1031D0000E94FB33C901F901C284D384E484F584DD
:1031E000F1E0CF1AD108E108F108F901C286D386CF
:1031F000E486F586C114D104E104F10439F40E9497
:10320000C41704C0CC24CA94DC2C7601C701B601D3
:10321000FF90EF90DF90CF900895CF92DF92EF92E2
:10322000FF92AC01892B21F1952F990F990B9A01EF
:10323000492F592F692F792F892FA8EF0E94FB332F
:10324000C901F901C284D384E484F584F1E0CF1A82
:10325000D108E108F108F901C286D386E486F58633
:10326000C114D104E104F10439F40E94C41704C06C
:10327000CC24CA94DC2C7601C701B601FF90EF90F4
:10328000DF90CF9008959C01FB019081913009F06F
:1032900071C08181803109F06DC08281811170C05F
:1032A000838181116DC0848181116AC08581811102
:1032B00067C08681811164C08781811161C080856A
:1032C00081115EC0818581115BC08285811158C0EA
:1032D0008385811155C08485811152C085858111F6
:1032E0004FC0868581114CC08785811149C0808976
:1032F000811146C081898A3A09F042C02DC083817C
:10330000811138C08481811135C08581811132C01D
:10331000868181112FC0878181112CC08085811108
:1033200029C08185811126C08285811123C08385B2
:10333000811120C0848581111DC0858581111AC02D
:103340008685811117C08785811114C080898535D4
:1033500089F4818981110EC0FA01C901318320836A
:10336000D901ED91FC910280F381E02D099580E077
:1033700090E00895FA01118210828FEF9FEF089577
:103380009281992309F4BBCFF5CFFC01892B79F009
:1033900082819381A481B581BC01CD016F5F7F4F94
:1033A0008F4F9F4F628373838483958308956FEF5C
:1033B0007FEFCB010895FC01892B79F08281938105
:1033C000A481B581BC01CD016150710981099109C8
:1033D000628373838483958308956FEF7FEFCB01BE
:1033E00008959C01892B39F0CA01F9010084F18507
:1033F000E02D099508958FEF9FEF0895AF92BF924A
:10340000CF92DF92EF92FF920F931F93CF93DF93B0
:1034100000D0CDB7DEB7F9011A821982009709F4FE
:1034200077C04115510509F439C02081213009F0D8
:1034300072C02181203109F071C02281211171C037
:103440002381211171C02481211171C02581211195
:1034500071C02681211171C02781211171C0208581
:10346000211171C02185211171C02285211171C0E6
:103470002385211171C02485211171C02585211159
:1034800071C02685211171C02785211171C0208945
:10349000211171C021892A3A09F070C07F019A0177
:1034A0006B015C01DC011696ED91FC911797AE0162
:1034B0004F5F5F4FB901C6010995892B09F061C0C3
:1034C00049815A814115510509F45EC0D501ED913C
:1034D000FC910084F185E02DB601C5010995898133
:1034E0009A81DC01ED91FC910190F081E02DA80121
:1034F000B7010995082F192F89819A81DC01ED9177
:10350000FC910480F581E02D0995802F912F3EC01C
:103510008FEF9FEF3BC08FEF9FEF38C08FEF9FEF94
:1035200035C08FEF9FEF32C08FEF9FEF2FC08FEF2F
:103530009FEF2CC08FEF9FEF29C08FEF9FEF26C02A
:103540008FEF9FEF23C08FEF9FEF20C08FEF9FEF94
:103550001DC08FEF9FEF1AC08FEF9FEF17C08FEF47
:103560009FEF14C08FEF9FEF11C08FEF9FEF0EC042
:103570008FEF9FEF0BC08FEF9FEF08C08FEF9FEF94
:1035800005C08FEF9FEF02C08FEF9FEF0F900F905E
:10359000DF91CF911F910F91FF90EF90DF90CF902F
:1035A000BF90AF900895009711F00A96089580E0BB
:1035B00090E00895009719F0865B9F4F089580E092
:1035C00090E00895009719F0865A9F4F089580E083
:1035D00090E00895009709F4D9C04115510509F408
:1035E000D8C0DB012C91213009F0CAC0DA01FB01FF
:1035F0002181203109F0D5C022812F3309F0CCC0C0
:103600002381283A09F0C8C024812B3409F0C4C0B2
:1036100025812E3809F0C0C02681273009F0BCC0B2
:103620002781253D09F0B8C02085233409F0B4C0B6
:103630002185233309F0B0C02285263B09F0ACC0B8
:103640002385223109F0A8C02485213F09F0A4C0B8
:1036500025852F3C09F0A0C026852C3209F09CC09E
:103660002785213909F098C02089243909F094C0B0
:1036700021892F3709F090C08D939C93DC01ED9147
:10368000FC9162817381FB01099580E090E00895CF
:103690002381203CC9F52481253FB1F525812C37B4
:1036A00099F52681273481F52781273D69F5208505
:1036B0002B3451F52185283F39F52285293821F50C
:1036C00023852F3409F524852435F1F42585273CFD
:1036D000D9F426852D33C1F427852E3FA9F42089FE
:1036E0002A3F91F421892E3A79F49C012E5F3F4FB5
:1036F0002D933C93DC01ED91FC9162817381FB0180
:10370000099580E090E008952281211139C023813C
:10371000211136C02481211133C02581211130C0EF
:10372000268121112DC0278121112AC02085211138
:1037300027C02185211124C02285211121C0238584
:1037400021111EC0248521111BC02585211118C0FF
:103750002685211115C02785211112C0208921112C
:103760000FC021892A3A61F48D939C93DC01ED917D
:10377000FC910280F381E02D099580E090E00895AE
:10378000FA01118210828FEF9FEF08958FEF9FEF64
:1037900008958FEF9FEF089522812A3209F0B4CF68
:1037A00077CF203109F4B0CFEBCFFC01892B79F032
:1037B00084819581A681B781BC01CD016F5F7F4F68
:1037C0008F4F9F4F648375838683978308956FEF30
:1037D0007FEFCB010895FC01892B79F084819581DD
:1037E000A681B781BC01CD016150710981099109A0
:1037F000648375838683978308956FEF7FEFCB0192
:10380000089521E030E0892B11F020E030E0882796
:103810009927821B930B089521E030E0892B11F04A
:1038200020E030E088279927821B930B089521E040
:1038300030E0892B11F020E030E088279927821BA7
:10384000930B089521E030E0892B11F020E030E067
:1038500088279927821B930B089521E030E0892B5C
:1038600011F020E030E088279927821B930B089500
:1038700021E030E0892B11F020E030E08827992703
:10388000821B930B089521E030E0892B11F020E09A
:1038900030E088279927821B930B089521E030E0C0
:1038A000892B11F020E030E088279927821B930BA9
:1038B000089521E030E0892B11F020E030E08827E6
:1038C0009927821B930B089521E030E0892B11F09A
:1038D00020E030E088279927821B930B0895CF932F
:1038E000DF93EC01892B09F471C06C87ED85F0E062
:1038F00090818F85892B8083E889F0E090818A8987
:10390000892B80838C8585FF18C0EB89F0E090813E
:103910008D89892B8083EE89F0E09081888D892BB9
:103920008083E98DF0E090818B8D892B8083EC8DF5
:10393000F0E090818E8D892B8083EF8DF0E0908177
:1039400089A1892B8083EAA1F0E090818CA1892B49
:103950008083EDA1F0E090818FA1892B8083E8A581
:10396000F0E090818AA5892B8083462F4062E88110
:10397000F981048CF58DE02D60E0CE010995E88198
:10398000F981048CF58DE02D42E060E0CE010995CF
:10399000E881F981048CF58DE02D4CE060E0CE01EA
:1039A0000995E881F981048CF58DE02D41E060E016
:1039B000CE010995E881F981048CF58DE02D40E870
:1039C00060E0CE01099580E090E002C08FEF9FEFAC
:1039D000DF91CF91089521E030E0892B11F020E0B4
:1039E00030E088279927821B930B08950F931F932C
:1039F000CF93DF93EA01009709F4E9C0209709F417
:103A0000E9C0DB012C91213009F0DCC08A01FB0107
:103A1000A92FAA0FAA0B282F392F4A2F5A2F6A2F06
:103A20007A2F8A2F9A2FAEEF0E94FB33822F932F8B
:103A30002181203109F0D6C022812F3309F0CDC079
:103A40002381283A09F0C9C024812B3409F0C5C06C
:103A500025812E3809F0C1C02681273009F0BDC06C
:103A60002781253D09F0B9C02085233409F0B5C070
:103A70002185233309F0B1C02285263B09F0ADC072
:103A80002385223109F0A9C02485213F09F0A5C072
:103A900025852F3C09F0A1C026852C3209F09DC058
:103AA0002785213909F099C02089243909F095C06A
:103AB00021892F3709F091C099838883DC01ED912A
:103AC000FC9162817381FB01099580E090E08EC0DA
:103AD0002381203CD1F52481253FB9F525812C3760
:103AE000A1F52681273489F52781273D71F52085A9
:103AF0002B3459F52185283F41F52285293829F5B0
:103B000023852F3411F524852435F9F42585273CA8
:103B1000E1F426852D33C9F427852E3FB1F42089A1
:103B20002A3F99F421892E3A81F49C012E5F3F4F60
:103B3000D8012D933C93DC01ED91FC91628173815E
:103B4000FB01099580E090E051C0228121113AC02B
:103B50002381211137C02481211134C025812111F5
:103B600031C0268121112EC0278121112BC0208533
:103B7000211128C02185211125C02285211122C0B3
:103B8000238521111FC0248521111CC025852111E9
:103B900019C02685211116C02785211113C020893F
:103BA000211110C021892A3A69F4D8018D939C9380
:103BB000DC01ED91FC910280F381E02D099580E01C
:103BC00090E014C0198218828FEF9FEF0FC08FEF23
:103BD0009FEF0CC08FEF9FEF09C022812A3209F0BE
:103BE000B4CF76CF203109F4B0CFECCFDF91CF91B5
:103BF0001F910F910895AC01892BF1F0952F990F2A
:103C0000990B242F352F492F592F692F792F892F61
:103C1000AEEF0E94FB33E22FF32F84819581A681C2
:103C2000B781BC01CD016F5F7F4F8F4F9F4F648382
:103C300075838683978308956FEF7FEFCB01089597
:103C4000AC01892BF1F0952F990F990B242F352F6B
:103C5000492F592F692F792F892FAEEF0E94FB33FF
:103C6000E22FF32F84819581A681B781BC01CD011C
:103C700061507109810991096483758386839783F3
:103C800008956FEF7FEFCB010895CF93DF9300D0BE
:103C9000CDB7DEB7FC019F2F990F990B2E2F3F2F29
:103CA000492F592F692F792F892FAEEF0E94FB33AF
:103CB000A22FB32F1A821982EF2B79F09E012F5F6A
:103CC0003F4FAD0160E070E01A968D919C911B977B
:103CD0000E94FB2289819A8102C08FEF9FEF0F9093
:103CE0000F90DF91CF9108958F929F92AF92BF92E4
:103CF000CF92DF92EF92FF924B015C0120E030E027
:103D0000A9010E946C2F1816BCF01CC0000001977E
:103D1000E9F720E030E040E85FE3C701B6010E9428
:103D2000AF2E6B017C019B01AC01C501B4010E9467
:103D30006C2F181624F006C0C12CD12C760187EB0D
:103D40009CE0E4CF80E090E0FF90EF90DF90CF9098
:103D5000BF90AF909F908F9008951F93CF93DF9364
:103D6000EC01892B09F40EC1611108C0EE85F0E069
:103D700090818F8580958923808308C0EE85F0E04F
:103D8000808191812F85822B91838083142F60E025
:103D900070E080EA90E40E94741E112344F0E9A5CB
:103DA000F0E090818AA580958923808306C0E9A5EB
:103DB000F0E090818AA5892B808316FD08C0EEA1D2
:103DC000F0E090818FA180958923808306C0EEA1C9
:103DD000F0E090818FA1892B808315FD08C0EBA1B5
:103DE000F0E090818CA180958923808306C0EBA1AF
:103DF000F0E090818CA1892B808314FD08C0E8A19C
:103E0000F0E0908189A180958923808306C0E8A194
:103E1000F0E0908189A1892B80838C8585FF47C044
:103E200013FD08C0ED8DF0E090818E8D8095892383
:103E3000808308C0ED8DF0E0808191812E8D822BF2
:103E40009183808312FD08C0EA8DF0E090818B8D14
:103E500080958923808306C0EA8DF0E090818B8D68
:103E6000892B808311FD08C0EF89F0E09081888D57
:103E700080958923808306C0EF89F0E09081888D4A
:103E8000892B808310FD0AC0EC89F0E090818D8938
:103E900080958923808380E090E076C0EC89F0E013
:103EA00090818D89892B808380E090E06DC0E989C5
:103EB000F0E090818A89892B808360E070E080EA5D
:103EC00090E40E94741EE989F0E090818A898095CF
:103ED0008923808313FD08C0E9A5F0E090818AA5BD
:103EE00080958923808308C0E9A5F0E080819181D5
:103EF0002AA5822B9183808312FD08C0EEA1F0E0F9
:103F000090818FA180958923808306C0EEA1F0E087
:103F100090818FA1892B808311FD08C0EBA1F0E077
:103F200090818CA180958923808306C0EBA1F0E06D
:103F300090818CA1892B808310FD08C0E8A1F0E05E
:103F4000908189A180958923808306C0E8A1F0E053
:103F5000908189A1892B8083E989F0E090818A8909
:103F6000892B808360E070E080EA90E40E94741EF8
:103F7000E989F0E090818A8980958923808380E0B7
:103F800090E002C08FEF9FEFDF91CF911F910895D6
:103F9000009719F0FC01738762878FEF9FEF0895F8
:103FA0004115510569F18091BA029091BB02A0912F
:103FB000BC02B091BD0282309105A105B10560F04F
:103FC0000196A11DB11D8093BA029093BB02A093EC
:103FD000BC02B093BD020CC081E090E0A0E0B0E074
:103FE0008093BA029093BB02A093BC02B093BD022F
:103FF00086EB92E0FA019183808380E090E008955F
:104000008FEF9FEF0895009709F4D9C0411551052E
:1040100009F4D8C0DB012C91213009F0CAC0DA01C3
:10402000FB012181203109F0D5C022812D3109F019
:10403000CCC02381293509F0C8C02481253409F07A
:10404000C4C02581263009F0C0C02681293009F07E
:10405000BCC027812E3909F0B8C02085253409F06D
:10406000B4C021852E3509F0B0C02285213809F071
:10407000ACC02385273509F0A8C024852B3309F06F
:10408000A4C02585203409F0A0C026852A3E09F069
:104090009CC027852D3609F098C020892F3509F05E
:1040A00094C02189223309F090C08D939C93DC0148
:1040B000ED91FC9162817381FB01099580E090E0B4
:1040C00008952381263DC9F524812134B1F5258148
:1040D000223799F52681233781F52781243D69F51B
:1040E0002085293451F52185213F39F522852B384A
:1040F00021F523852B3509F524852530F1F4258517
:104100002B3BD9F42685233FC1F427852532A9F41A
:104110002089233E91F42189293379F49C012E5F73
:104120003F4F2D933C93DC01ED91FC9162817381B3
:10413000FB01099580E090E008952281211139C0AA
:104140002381211136C02481211133C02581211101
:1041500030C0268121112DC0278121112AC0208540
:10416000211127C02185211124C02285211121C0C0
:10417000238521111EC0248521111BC025852111F5
:1041800018C02685211115C02785211112C020894C
:1041900021110FC021892A3A61F48D939C93DC018F
:1041A000ED91FC910280F381E02D099580E090E093
:1041B0000895FA01118210828FEF9FEF08958FEF1B
:1041C0009FEF08958FEF9FEF08952281203209F02D
:1041D000B4CF77CF203109F4B0CFEBCFFC01892BDE
:1041E00079F084819581A681B781BC01CD016F5F93
:1041F0007F4F8F4F9F4F6483758386839783089586
:104200006FEF7FEFCB0108950F931F93CF93DF9351
:10421000EA01009709F4E9C0209709F4E9C0DB013D
:104220002C91213009F0DCC08A01FB01A92FAA0FD3
:10423000AA0B282F392F4A2F5A2F6A2F7A2F8A2F0D
:104240009A2FAEEF0E94FB33822F932F21812031D2
:1042500009F0D6C022812D3109F0CDC02381293546
:1042600009F0C9C02481253409F0C5C02581263054
:1042700009F0C1C02681293009F0BDC027812E393F
:1042800009F0B9C02085253409F0B5C021852E3547
:1042900009F0B1C02285213809F0ADC0238527354A
:1042A00009F0A9C024852B3309F0A5C02585203449
:1042B00009F0A1C026852A3E09F09DC027852D362C
:1042C00009F099C020892F3509F095C02189223342
:1042D00009F091C099838883DC01ED91FC916281A2
:1042E0007381FB01099580E090E08EC02381263D1B
:1042F000D1F524812134B9F525812237A1F5268114
:10430000233789F52781243D71F52085293459F516
:104310002185213F41F522852B3829F523852B3531
:1043200011F524852530F9F425852B3BE1F426850C
:10433000233FC9F427852532B1F42089233E99F41F
:104340002189293381F49C012E5F3F4FD8012D93A1
:104350003C93DC01ED91FC9162817381FB01099535
:1043600080E090E051C0228121113AC023812111C7
:1043700037C02481211134C02581211131C026810B
:1043800021112EC0278121112BC02085211128C089
:104390002185211125C02285211122C023852111CB
:1043A0001FC0248521111CC02585211119C0268517
:1043B000211116C02785211113C02089211110C099
:1043C00021892A3A69F4D8018D939C93DC01ED91FF
:1043D000FC910280F381E02D099580E090E014C00B
:1043E000198218828FEF9FEF0FC08FEF9FEF0CC0E5
:1043F0008FEF9FEF09C02281203209F0B4CF76CF32
:10440000203109F4B0CFECCFDF91CF911F910F9104
:104410000895AC01892BF1F0952F990F990B242F5A
:10442000352F492F592F692F792F892FAEEF0E94F1
:10443000FB33E22FF32F84819581A681B781BC01E4
:10444000CD016F5F7F4F8F4F9F4F6483758386834E
:10445000978308956FEF7FEFCB01089521E030E05F
:10446000892B11F020E030E088279927821B930BDD
:10447000089521E030E0892B11F020E030E088271A
:104480009927821B930B089521E030E0892B11F0CE
:1044900020E030E088279927821B930B089521E0C4
:1044A00030E0892B11F020E030E088279927821B2B
:1044B000930B089521E030E0892B11F020E030E0EB
:1044C00088279927821B930B08958F929F92AF9212
:1044D000BF92CF92DF92EF92FF920F931F93CF93F1
:1044E000DF93CDB7DEB760970FB6F894DEBF0FBE8F
:1044F000CDBF21E030E0892B11F020E030E08827AB
:104500009927821B930B60960FB6F894DEBF0FBEFF
:10451000CDBFDF91CF911F910F91FF90EF90DF9072
:10452000CF90BF90AF909F908F90089521E030E0A2
:10453000892B11F020E030E088279927821B930B0C
:10454000089521E030E0892B11F020E030E0882749
:104550009927821B930B08950F931F93CF93DF939B
:10456000FC01E9019F2F990F990B2E2F3F2F492F07
:10457000592F692F792F892FAEEF0E94FB33022F1D
:10458000132FEF2B31F04881411106C080E090E0FD
:1045900017C02097C1F712C02196D80118968D91A7
:1045A0009C911997DC01ED91FC91048CF58DE02D27
:1045B00061E0099549914111F0CF02C08FEF9FEF63
:1045C000DF91CF911F910F91089521E030E0892B69
:1045D00011F020E030E088279927821B930B089583
:1045E00021E030E0892B11F020E030E08827992786
:1045F000821B930B08952115310579F180910D03EC
:1046000090910E03A0910F03B09110038230910599
:10461000A105B10560F00196A11DB11D80930D03A8
:1046200090930E03A0930F03B09310030CC081E08E
:1046300090E0A0E0B0E080930D0390930E03A09370
:104640000F03B0931003E9E0F3E051874087D901ED
:10465000ED93FC9380E090E008958FEF9FEF089535
:10466000DC0118968D919C911997DC01ED91FC91DC
:104670000480F581E02D09950895CF92DF92EF92A5
:10468000FF920097B9F0FC01C480D580E680F780E6
:10469000F1E0CF1AD108E108F108FC01C482D5820B
:1046A000E682F782C114D104E104F10439F40E94D6
:1046B000302304C0CC24CA94DC2C7601C701B60197
:1046C000FF90EF90DF90CF900895CF92DF92EF921E
:1046D000FF92AC01892B29F1952F990F990B242F6B
:1046E000352F492F592F692F792F892FAEEF0E942F
:1046F000FB33E22FF32FC480D580E680F78081E082
:10470000C81AD108E108F108C482D582E682F7828E
:10471000C114D104E104F10441F4CF010E9430231B
:1047200004C0CC24CA94DC2C7601C701B601FF90EA
:10473000EF90DF90CF9008959C01FB019081913024
:1047400009F071C08181803109F06DC082818111D1
:1047500070C0838181116DC0848181116AC085819F
:10476000811167C08681811164C08781811161C018
:10477000808581115EC0818581115BC08285811138
:1047800058C08385811155C08485811152C08585AB
:1047900081114FC0868581114CC08785811149C028
:1047A0008089811146C081898A3A09F042C02DC0B2
:1047B0008381811138C08481811135C08581811147
:1047C00032C0868181112FC0878181112CC08085E4
:1047D000811129C08185811126C08285811123C064
:1047E0008385811120C0848581111DC0858581113B
:1047F0001AC08685811117C08785811114C08089F0
:10480000853589F4818981110EC0FA01C90131838E
:104810002083D901ED91FC910280F381E02D09956F
:1048200080E090E00895FA01118210828FEF9FEFEF
:1048300008959281992309F4BBCFF5CFFC01892B10
:1048400079F082819381A481B581BC01CD016F5F34
:104850007F4F8F4F9F4F6283738384839583089527
:104860006FEF7FEFCB010895FC01892B79F08281F6
:104870009381A481B581BC01CD0161507109810989
:104880009109628373838483958308956FEF7FEF2B
:10489000CB0108959C01892B39F0CA01F9010084EC
:1048A000F185E02D099508958FEF9FEF0895AF9260
:1048B000BF92CF92DF92EF92FF920F931F93CF930D
:1048C000DF9300D0CDB7DEB7F9011A8219820097C5
:1048D00009F477C04115510509F439C02081213010
:1048E00009F072C02181203109F071C022812111AB
:1048F00071C02381211171C02481211171C02581D2
:10490000211171C02681211171C02781211171C02F
:104910002085211171C02185211171C022852111AD
:1049200071C02385211171C02485211171C0258595
:10493000211171C02685211171C02785211171C0F7
:104940002089211171C021892A3A09F070C07F01A4
:104950009A016B015C01DC011696ED91FC911797B1
:10496000AE014F5F5F4FB901C6010995892B09F070
:1049700061C049815A814115510509F45EC0D501D4
:10498000ED91FC910084F185E02DB601C5010995FA
:1049900089819A81DC01ED91FC910190F081E02DFB
:1049A000A801B7010995082F192F89819A81DC0187
:1049B000ED91FC910480F581E02D0995802F912FD8
:1049C0003EC08FEF9FEF3BC08FEF9FEF38C08FEF60
:1049D0009FEF35C08FEF9FEF32C08FEF9FEF2FC05B
:1049E0008FEF9FEF2CC08FEF9FEF29C08FEF9FEFCE
:1049F00026C08FEF9FEF23C08FEF9FEF20C08FEF78
:104A00009FEF1DC08FEF9FEF1AC08FEF9FEF17C072
:104A10008FEF9FEF14C08FEF9FEF11C08FEF9FEFCD
:104A20000EC08FEF9FEF0BC08FEF9FEF08C08FEF8F
:104A30009FEF05C08FEF9FEF02C08FEF9FEF0F90AA
:104A40000F90DF91CF911F910F91FF90EF90DF902A
:104A5000CF90BF90AF900895009711F00A960895F7
:104A600080E090E00895009719F0865B9F4F0895CD
:104A700080E090E00895009719F0865A9F4F0895BE
:104A800080E090E00895009709F4D9C041155105E0
:104A900009F4D8C0DB012C91213009F0CAC0DA0139
:104AA000FB012181203109F0D5C022812F3009F08E
:104AB000CCC02381253009F0C8C02481283F09F0EB
:104AC000C4C025812C3009F0C0C02681223E09F0E7
:104AD000BCC027812E3E09F0B8C02085293409F0DA
:104AE000B4C02185203309F0B0C02285213B09F0F4
:104AF000ACC02385293D09F0A8C02485273A09F0D8
:104B0000A4C02585253C09F0A0C02685273509F0DD
:104B10009CC02785213809F098C020892C3409F0E1
:104B200094C021892E3409F090C08D939C93DC01B0
:104B3000ED91FC9162817381FB01099580E090E029
:104B400008952381293BC9F524812133B1F52581BD
:104B50002B3C99F52681223F81F527812E3069F57E
:104B600020852F3451F521852D3339F522852839BB
:104B700021F52385283E09F52485273AF1F425857A
:104B80002235D9F426852E33C1F427852634A9F49D
:104B90002089283C91F421892C3B79F49C012E5FDB
:104BA0003F4F2D933C93DC01ED91FC916281738129
:104BB000FB01099580E090E008952281211139C020
:104BC0002381211136C02481211133C02581211177
:104BD00030C0268121112DC0278121112AC02085B6
:104BE000211127C02185211124C02285211121C036
:104BF000238521111EC0248521111BC0258521116B
:104C000018C02685211115C02785211112C02089C1
:104C100021110FC021892A3A61F48D939C93DC0104
:104C2000ED91FC910280F381E02D099580E090E008
:104C30000895FA01118210828FEF9FEF08958FEF90
:104C40009FEF08958FEF9FEF08952281283509F097
:104C5000B4CF77CF203109F4B0CFEBCFFC01892B53
:104C600079F084819581A681B781BC01CD016F5F08
:104C70007F4F8F4F9F4F64837583868397830895FB
:104C80006FEF7FEFCB010895FC01892B79F08481D0
:104C90009581A681B781BC01CD016150710981095F
:104CA0009109648375838683978308956FEF7FEFFF
:104CB000CB010895FC01892B09F484C0608B81E04D
:104CC00090E09C0102C0220F331F6A95E2F7215049
:104CD000218B428B02C0880F991F4A95E2F78150C1
:104CE000838BA789B0E09C91818D809589238C93DB
:104CF000A08DB0E09C91818D892B8C93A38DB0E029
:104D00009C91858D809589238C93A48DB0E09C9196
:104D1000858D892B8C93A78DB0E09C9181A1809586
:104D200089238C93A0A1B0E09C9181A1892B8C93C5
:104D30008089843068F0A3A1B0E09C9185A1809522
:104D400089238C93A4A1B0E09C9185A1892B8C939D
:104D5000A4A5B0E09C9185A5809589238C93A3A5FB
:104D6000B0E09C9185A5892B8C93A0A9B0E09C9183
:104D700081A9809589238C93A7A5B0E09C9181A9F6
:104D8000892B8C93A4A9B0E09C9185A98095892357
:104D90008C93A3A9B0E09C9185A9892B8C938289DF
:104DA000843098F0A0ADB0E09C9181AD80958923CE
:104DB0008C93A7A9B0E09C9181AD892B8C9380E066
:104DC00090E008958FEF9FEF089580E090E00895C0
:104DD000009741F0FC01448755876687778780E01C
:104DE00090E008958FEF9FEF0895009731F0FC0158
:104DF000758B648B80E090E008958FEF9FEF0895AE
:104E00000F931F93CF93DF93EA01009709F4E9C052
:104E1000209709F4E9C0DB012C91213009F0DCC0B6
:104E20008A01FB01A92FAA0FAA0B282F392F4A2F7D
:104E30005A2F6A2F7A2F8A2F9A2FAEEF0E94FB33B8
:104E4000822F932F2181203109F0D6C022812F306B
:104E500009F0CDC02381253009F0C9C02481283F45
:104E600009F0C5C025812C3009F0C1C02681223E41
:104E700009F0BDC027812E3E09F0B9C02085293434
:104E800009F0B5C02185203309F0B1C02285213B4E
:104E900009F0ADC02385293D09F0A9C02485273A32
:104EA00009F0A5C02585253C09F0A1C02685273538
:104EB00009F09DC02785213809F099C020892C343C
:104EC00009F095C021892E3409F091C09983888317
:104ED000DC01ED91FC9162817381FB01099580E019
:104EE00090E08EC02381293BD1F524812133B9F58F
:104EF00025812B3CA1F52681223F89F527812E3083
:104F000071F520852F3459F521852D3341F5228502
:104F1000283929F52385283E11F52485273AF9F407
:104F200025852235E1F426852E33C9F427852634DC
:104F3000B1F42089283C99F421892C3B81F49C010F
:104F40002E5F3F4FD8012D933C93DC01ED91FC91F6
:104F500062817381FB01099580E090E051C022815C
:104F600021113AC02381211137C02481211134C07D
:104F70002581211131C0268121112EC027812111C7
:104F80002BC02085211128C02185211125C0228513
:104F9000211122C0238521111FC0248521111CC08D
:104FA0002585211119C02685211116C027852111BB
:104FB00013C02089211110C021892A3A69F4D8012F
:104FC0008D939C93DC01ED91FC910280F381E02DA7
:104FD000099580E090E014C0198218828FEF9FEF4E
:104FE0000FC08FEF9FEF0CC08FEF9FEF09C02281A2
:104FF000283509F0B4CF76CF203109F4B0CFECCF0B
:10500000DF91CF911F910F910895AC01892BF1F0A1
:10501000952F990F990B242F352F492F592F692F31
:10502000792F892FAEEF0E94FB33E22FF32F84817B
:105030009581A681B781BC01CD016F5F7F4F8F4FF6
:105040009F4F648375838683978308956FEF7FEF07
:10505000CB010895AC01892BF1F0952F990F990B95
:10506000242F352F492F592F692F792F892FAEEFF4
:105070000E94FB33E22FF32F84819581A681B781B3
:10508000BC01CD0161507109810991096483758367
:105090008683978308956FEF7FEFCB01089521E01A
:1050A00030E0892B11F020E030E088279927821B1F
:1050B000930B089521E030E0892B11F020E030E0DF
:1050C00088279927821B930B08958F929F92AF9206
:1050D000BF92CF92DF92EF92FF924B015C0120E0F2
:1050E00030E0A9010E946C2F1816BCF01CC0000013
:1050F0000197E9F720E030E040E85FE3C701B6013F
:105100000E94AF2E6B017C019B01AC01C501B40173
:105110000E946C2F181624F006C0C12CD12C7601E9
:1051200087EB9CE0E4CF80E090E0FF90EF90DF9091
:10513000CF90BF90AF909F908F900895FC01892BE6
:1051400071F1A689B0E09C91818D982381E009F4EA
:1051500080E09089923020F1A28DB0E03C91258DC5
:10516000232309F082609330D8F0A68DB0E03C9103
:1051700021A1232309F08460943090F0A2A1B0E033
:105180003C9125A1232309F08860953048F0A6A121
:10519000B0E02C9191A5922319F0806108958FEFD2
:1051A00008950F931F93CF93DF93009709F435C2AF
:1051B000EC0100E001C0022FEF89F0E09081898DC1
:1051C000809589238083E88DF0E09081898D892BFB
:1051D000808388898230E8F1EB8DF0E090818D8DBD
:1051E000809589238083EC8DF0E090818D8D892BD3
:1051F00080838889833068F1EF8DF0E0908189A108
:10520000809589238083E8A1F0E0908189A1892B92
:10521000808388898430E8F0EBA1F0E090818DA153
:10522000809589238083ECA1F0E090818DA1892B6A
:1052300080838889853068F0EFA1F0E0908189A5AE
:10524000809589238083E8A5F0E0908189A5892B4A
:105250008083ECA5F0E090818DA5809589238083E3
:10526000EBA5F0E090818DA5892B80838A8982301F
:1052700068F1E8A9F0E0908189A98095892380836D
:10528000EFA5F0E0908189A9892B80838A898330FA
:10529000E8F0ECA9F0E090818DA9809589238083C6
:1052A000EBA9F0E090818DA9892B80838A898430D5
:1052B00068F0E8ADF0E0908189AD80958923808326
:1052C000EFA9F0E0908189AD892B8083CE010E9407
:1052D0009E28182F60E070E080EA91E40E94652823
:1052E000CE010E949E281813F1CFEBA5F0E020819B
:1052F0009DA5909592239083ECA5F0E020819DA53B
:10530000922B90839A89923068F1EFA5F0E020818A
:1053100099A9909592239083E8A9F0E0208199A91A
:10532000922B90839A899330E8F0EBA9F0E02081EA
:105330009DA9909592239083ECA9F0E020819DA9EE
:10534000922B90839A89943068F0EFA9F0E0208145
:1053500099AD909592239083E8ADF0E0208199ADCE
:10536000922B9083E88DF0E02081998D9095922387
:105370009083EF89F0E02081998D922B908398891A
:105380009230E8F1EC8DF0E020819D8D9095922394
:105390009083EB8DF0E020819D8D922B90839889F6
:1053A000933068F1E8A1F0E0208199A190959223D3
:1053B0009083EF8DF0E0208199A1922B90839889C2
:1053C0009430E8F0ECA1F0E020819DA1909592232B
:1053D0009083EBA1F0E020819DA1922B908398898E
:1053E000953068F0E8A5F0E0208199A5909592238A
:1053F0009083EFA1F0E0208199A5922B9083EAA5FC
:10540000F0E020819DA5922309F001609A899230F5
:10541000E8F0EEA5F0E0308129A9232309F002602D
:105420009330B0F0EAA9F0E030812DA9232319F0E0
:10543000202F246001C0202F943058F0EEA9F0E016
:10544000308199AD932329F0286003C0202F01C03B
:10545000202F9989891304C03B892313ACCE05C042
:105460000B89201709F4A8CE322FEF89F0E02081B4
:10547000998D909592239083E88DF0E02081998D0D
:105480009095922390839889923008F441C0EB8DD7
:10549000F0E020819D8D909592239083EC8DF0E03B
:1054A00020819D8D9095922390839889933080F1EF
:1054B000EF8DF0E0208199A1909592239083E8A14F
:1054C000F0E0208199A1909592239083988994305F
:1054D000F8F0EBA1F0E090812DA12095922390832C
:1054E000ECA1F0E090812DA12095922390839889E2
:1054F000953070F0EFA1F0E0908129A520959223DE
:105500009083E8A5F0E0908129A5209592239083CF
:10551000EBA5F0E020819DA5909592239083ECA5CA
:10552000F0E020819DA59095922390839A899230F6
:1055300080F1EFA5F0E0208199A9909592239083C6
:10554000E8A9F0E0208199A99095922390839A8907
:105550009330F8F0EBA9F0E020819DA9909592237B
:105560009083ECA9F0E020819DA9909592239083EF
:105570009A89943070F0EFA9F0E0908129AD2095E0
:1055800092239083E8ADF0E0908129AD209592239D
:105590009083882309F443C0332309F442C0288947
:1055A0002223C9F0E82FF0E080FF12C041E050E074
:1055B0000BC0BF01042E02C0759567950A94E2F7EF
:1055C0004F5F5F4F60FF06C0942F421790F303C0F8
:1055D00080E001C0892F2A892223C9F0E32FF0E05F
:1055E00030FF12C041E050E00BC0BF01042E02C0EA
:1055F000759567950A94E2F74F5F5F4F60FF06C0AD
:10560000942F421790F303C030E001C0392F20E2FD
:10561000829FC0011124832B05C08FEF03C08FEF41
:1056200001C08FEFDF91CF911F910F9108951F93CC
:10563000CF93DF93EC01892BF9F0CE010E94D128A2
:105640008F3FD9F3282F22952695277098898F713F
:10565000E82FF0E0299FE00DF11D11248C899D8930
:10566000E80FF91F10816C857D858E859F850E94CE
:105670006528812F90E002C08FEF9FEFDF91CF91DF
:105680001F9108950F931F93CF938C01892B79F06D
:10569000C8010E94D128C82F8F3FD1F3F80164853B
:1056A0007585868597850E9465288C2F01C08FEFB0
:1056B000CF911F910F910895009719F0FC01738706
:1056C00062878FEF9FEF08954115510569F1809131
:1056D000E5039091E603A091E703B091E8038230DF
:1056E0009105A105B10560F00196A11DB11D809342
:1056F000E5039093E603A093E703B093E8030CC09F
:1057000081E090E0A0E0B0E08093E5039093E603B1
:10571000A093E703B093E80381EE93E0FA0191834D
:10572000808380E090E008958FEF9FEF0895FB0164
:105730002081213009F06EC02181203109F06AC03A
:105740002281211167C0238121112AC024812111C6
:1057500027C02581211124C02681211121C0278144
:1057600021111EC0208521111BC02185211118C0C7
:105770002285211115C02385211112C024852111F4
:105780000FC0258521110CC02685211109C0278550
:10579000211106C02089211103C021892A3A69F10B
:1057A0002381211137C02481211134C02581211189
:1057B00031C0268121112EC0278121112BC02085C7
:1057C000211128C02185211125C02285211122C047
:1057D000238521111FC0248521111CC0258521117D
:1057E00019C02685211116C02785211113C02089D3
:1057F000253581F4218921110DC0FA01918380831F
:10580000DC01ED91FC910280F381E02D099580E0AF
:1058100090E00895FA01118210828FEF9FEF0895B2
:10582000FC01892B79F082819381A481B581BC012F
:10583000CD016F5F7F4F8F4F9F4F62837383848350
:10584000958308956FEF7FEFCB010895FC01892BBD
:1058500079F082819381A481B581BC01CD01615031
:105860007109810991096283738384839583089503
:105870006FEF7FEFCB010895FC01CA01309721F053
:105880000084F185E02D09948FEF9FEF0895AF928A
:10589000BF92CF92DF92EF92FF920F931F93CF931D
:1058A000DF9300D0CDB7DEB7F9011A8219820097D5
:1058B00019F48FEF9FEF70C041155105B1F12081B0
:1058C0002130B9F721812031A1F722812111F1CFB7
:1058D00023812111EECF24812111EBCF25812111CC
:1058E000E8CF26812111E5CF27812111E2CF208544
:1058F0002111DFCF21852111DCCF22852111D9CFC4
:1059000023852111D6CF24852111D3CF25852111BF
:10591000D0CF26852111CDCF27852111CACF20894F
:105920002111C7CF21892A3A21F67F019A015B0113
:105930006C01DC011696ED91FC911797AE014F5F5B
:105940005F4FB901C5010995892B09F0B2CF498193
:105950005A814115510509F4ACCFD601ED91FC9166
:105960000084F185E02DB501C601099589819A81F0
:10597000DC01ED91FC910190F081E02DA801B701CF
:1059800009957C0189819A81DC01ED91FC9104806B
:10599000F581E02D0995C7010F900F90DF91CF9110
:1059A0001F910F91FF90EF90DF90CF90BF90AF903D
:1059B0000895009711F00A96089580E090E0089508
:1059C000009719F0865B9F4F089580E090E008955E
:1059D000009719F0865A9F4F089580E090E008954F
:1059E000FB01009709F48AC04115510509F486C0EE
:1059F0002081213009F07FC02181203109F07BC056
:105A0000DA0122812339E1F52381223209F073C0C2
:105A10002481213109F06FC02581263109F06BC046
:105A20002681223209F067C02781283409F063C03B
:105A30002085273409F05FC02185223409F05BC03E
:105A400022852E3A09F057C02385263009F053C02D
:105A50002485223809F04FC02585213809F04BC034
:105A60002685243909F047C02785273409F043C02B
:105A70002089243809F03FC021892D33E1F52FC05A
:105A8000211139C02381211136C02481211133C055
:105A90002581211130C0268121112DC0278121119E
:105AA0002AC02085211127C02185211124C02285EB
:105AB000211121C0238521111EC0248521111BC065
:105AC0002585211118C02685211115C02785211192
:105AD00012C0208921110FC021892A3A61F48D93C7
